{
  "address": "0xbc2CFE5F6Cab56d1237b7dFfc0A926BaeE71359C",
  "abi": [
    {
      "inputs": [
        {
          "internalType": "address",
          "name": "bnplTokenAddress",
          "type": "address"
        }
      ],
      "stateMutability": "nonpayable",
      "type": "constructor"
    },
    {
      "anonymous": false,
      "inputs": [
        {
          "indexed": true,
          "internalType": "bytes32",
          "name": "role",
          "type": "bytes32"
        },
        {
          "indexed": true,
          "internalType": "bytes32",
          "name": "previousAdminRole",
          "type": "bytes32"
        },
        {
          "indexed": true,
          "internalType": "bytes32",
          "name": "newAdminRole",
          "type": "bytes32"
        }
      ],
      "name": "RoleAdminChanged",
      "type": "event"
    },
    {
      "anonymous": false,
      "inputs": [
        {
          "indexed": true,
          "internalType": "bytes32",
          "name": "role",
          "type": "bytes32"
        },
        {
          "indexed": true,
          "internalType": "address",
          "name": "account",
          "type": "address"
        },
        {
          "indexed": true,
          "internalType": "address",
          "name": "sender",
          "type": "address"
        }
      ],
      "name": "RoleGranted",
      "type": "event"
    },
    {
      "anonymous": false,
      "inputs": [
        {
          "indexed": true,
          "internalType": "bytes32",
          "name": "role",
          "type": "bytes32"
        },
        {
          "indexed": true,
          "internalType": "address",
          "name": "account",
          "type": "address"
        },
        {
          "indexed": true,
          "internalType": "address",
          "name": "sender",
          "type": "address"
        }
      ],
      "name": "RoleRevoked",
      "type": "event"
    },
    {
      "inputs": [],
      "name": "BNPL_TOKEN_ADDRESS",
      "outputs": [
        {
          "internalType": "address",
          "name": "",
          "type": "address"
        }
      ],
      "stateMutability": "view",
      "type": "function"
    },
    {
      "inputs": [],
      "name": "DEFAULT_ADMIN_ROLE",
      "outputs": [
        {
          "internalType": "bytes32",
          "name": "",
          "type": "bytes32"
        }
      ],
      "stateMutability": "view",
      "type": "function"
    },
    {
      "inputs": [],
      "name": "PRICE_SETTER_ROLE",
      "outputs": [
        {
          "internalType": "bytes32",
          "name": "",
          "type": "bytes32"
        }
      ],
      "stateMutability": "view",
      "type": "function"
    },
    {
      "inputs": [],
      "name": "WITHDRAWAL_ROLE",
      "outputs": [
        {
          "internalType": "bytes32",
          "name": "",
          "type": "bytes32"
        }
      ],
      "stateMutability": "view",
      "type": "function"
    },
    {
      "inputs": [],
      "name": "bnplBalance",
      "outputs": [
        {
          "internalType": "uint256",
          "name": "",
          "type": "uint256"
        }
      ],
      "stateMutability": "view",
      "type": "function"
    },
    {
      "inputs": [
        {
          "internalType": "address",
          "name": "",
          "type": "address"
        }
      ],
      "name": "bnplPrices",
      "outputs": [
        {
          "internalType": "uint256",
          "name": "",
          "type": "uint256"
        }
      ],
      "stateMutability": "view",
      "type": "function"
    },
    {
      "inputs": [
        {
          "internalType": "uint256",
          "name": "amount",
          "type": "uint256"
        }
      ],
      "name": "depositBNPL",
      "outputs": [],
      "stateMutability": "nonpayable",
      "type": "function"
    },
    {
      "inputs": [
        {
          "internalType": "address",
          "name": "token",
          "type": "address"
        },
        {
          "internalType": "uint256",
          "name": "amount",
          "type": "uint256"
        }
      ],
      "name": "depositToken",
      "outputs": [],
      "stateMutability": "nonpayable",
      "type": "function"
    },
    {
      "inputs": [
        {
          "components": [
            {
              "internalType": "address",
              "name": "tokenIn",
              "type": "address"
            },
            {
              "internalType": "address",
              "name": "tokenOut",
              "type": "address"
            },
            {
              "internalType": "uint24",
              "name": "fee",
              "type": "uint24"
            },
            {
              "internalType": "address",
              "name": "recipient",
              "type": "address"
            },
            {
              "internalType": "uint256",
              "name": "deadline",
              "type": "uint256"
            },
            {
              "internalType": "uint256",
              "name": "amountIn",
              "type": "uint256"
            },
            {
              "internalType": "uint256",
              "name": "amountOutMinimum",
              "type": "uint256"
            },
            {
              "internalType": "uint160",
              "name": "sqrtPriceLimitX96",
              "type": "uint160"
            }
          ],
          "internalType": "struct IBNPLSwapMarket.ExactInputSingleParams",
          "name": "params",
          "type": "tuple"
        }
      ],
      "name": "exactInputSingle",
      "outputs": [
        {
          "internalType": "uint256",
          "name": "amountOut",
          "type": "uint256"
        }
      ],
      "stateMutability": "payable",
      "type": "function"
    },
    {
      "inputs": [
        {
          "internalType": "bytes32",
          "name": "role",
          "type": "bytes32"
        }
      ],
      "name": "getRoleAdmin",
      "outputs": [
        {
          "internalType": "bytes32",
          "name": "",
          "type": "bytes32"
        }
      ],
      "stateMutability": "view",
      "type": "function"
    },
    {
      "inputs": [
        {
          "internalType": "bytes32",
          "name": "role",
          "type": "bytes32"
        },
        {
          "internalType": "address",
          "name": "account",
          "type": "address"
        }
      ],
      "name": "grantRole",
      "outputs": [],
      "stateMutability": "nonpayable",
      "type": "function"
    },
    {
      "inputs": [
        {
          "internalType": "bytes32",
          "name": "role",
          "type": "bytes32"
        },
        {
          "internalType": "address",
          "name": "account",
          "type": "address"
        }
      ],
      "name": "hasRole",
      "outputs": [
        {
          "internalType": "bool",
          "name": "",
          "type": "bool"
        }
      ],
      "stateMutability": "view",
      "type": "function"
    },
    {
      "inputs": [
        {
          "internalType": "bytes32",
          "name": "role",
          "type": "bytes32"
        },
        {
          "internalType": "address",
          "name": "account",
          "type": "address"
        }
      ],
      "name": "renounceRole",
      "outputs": [],
      "stateMutability": "nonpayable",
      "type": "function"
    },
    {
      "inputs": [
        {
          "internalType": "bytes32",
          "name": "role",
          "type": "bytes32"
        },
        {
          "internalType": "address",
          "name": "account",
          "type": "address"
        }
      ],
      "name": "revokeRole",
      "outputs": [],
      "stateMutability": "nonpayable",
      "type": "function"
    },
    {
      "inputs": [
        {
          "internalType": "address",
          "name": "token",
          "type": "address"
        },
        {
          "internalType": "uint256",
          "name": "bnplPrice",
          "type": "uint256"
        }
      ],
      "name": "setBNPLPrice",
      "outputs": [],
      "stateMutability": "nonpayable",
      "type": "function"
    },
    {
      "inputs": [
        {
          "internalType": "bytes4",
          "name": "interfaceId",
          "type": "bytes4"
        }
      ],
      "name": "supportsInterface",
      "outputs": [
        {
          "internalType": "bool",
          "name": "",
          "type": "bool"
        }
      ],
      "stateMutability": "view",
      "type": "function"
    },
    {
      "inputs": [
        {
          "internalType": "address",
          "name": "",
          "type": "address"
        }
      ],
      "name": "tokenBalances",
      "outputs": [
        {
          "internalType": "uint256",
          "name": "",
          "type": "uint256"
        }
      ],
      "stateMutability": "view",
      "type": "function"
    },
    {
      "inputs": [
        {
          "internalType": "uint256",
          "name": "amount",
          "type": "uint256"
        }
      ],
      "name": "withdrawBNPL",
      "outputs": [],
      "stateMutability": "nonpayable",
      "type": "function"
    },
    {
      "inputs": [
        {
          "internalType": "address",
          "name": "token",
          "type": "address"
        },
        {
          "internalType": "uint256",
          "name": "amount",
          "type": "uint256"
        }
      ],
      "name": "withdrawToken",
      "outputs": [],
      "stateMutability": "nonpayable",
      "type": "function"
    }
  ],
  "transactionHash": "0xb244ac351cf06eac6bce8e5e67bf4d0c13d816466d9d69ba8c74309ae083cd11",
  "args": [
    "0x0928bbD50425E49492bF9a012eC1b8F3238CE71D"
  ],
  "solcInputHash": "1ea8a523a0ea379748ee8243d1ba5420",
  "bytecode": "0x60806040523480156200001157600080fd5b50604051620017b6380380620017b683398101604081905262000034916200015e565b600480546001600160a01b0319166001600160a01b0383161790556200007b7f04824fcb60e7cc526d70b264caa65b62ed44d9c8e5d230e8ff6b0c7373843b8a33620000ae565b620000a77f0744af9828f5bfd2e0f842fd62674fe7c160a394d457c33e1a56eeae3a44a9ef33620000ae565b506200018e565b620000ba8282620000be565b5050565b6000828152602081815260408083206001600160a01b038516845290915290205460ff16620000ba576000828152602081815260408083206001600160a01b03851684529091529020805460ff191660011790556200011a3390565b6001600160a01b0316816001600160a01b0316837f2f8788117e7eff1d82e926ec794901d17c78024a50270940304540a733656f0d60405160405180910390a45050565b60006020828403121562000170578081fd5b81516001600160a01b038116811462000187578182fd5b9392505050565b611618806200019e6000396000f3fe6080604052600436106101145760003560e01c80635de2e56c116100a05780639e281a98116100645780639e281a981461033d578063a217fddf1461035d578063d547741f14610372578063e8b3113514610392578063f00acbaa146103b257600080fd5b80635de2e56c1461027b57806367db90c2146102b35780636ec27544146102e757806391d14854146102fd57806395b14bc81461031d57600080fd5b80632f2ff15d116100e75780632f2ff15d146101db578063338b5dea146101fb57806336568abe1461021b578063414bf3891461023b578063523fba7f1461024e57600080fd5b806301ffc9a714610119578063088a27de1461014e578063242a711c14610189578063248a9ca3146101ab575b600080fd5b34801561012557600080fd5b506101396101343660046113f2565b6103e6565b60405190151581526020015b60405180910390f35b34801561015a57600080fd5b5061017b61016936600461134c565b60026020526000908152604090205481565b604051908152602001610145565b34801561019557600080fd5b506101a96101a43660046113af565b61041d565b005b3480156101b757600080fd5b5061017b6101c63660046113af565b60009081526020819052604090206001015490565b3480156101e757600080fd5b506101a96101f63660046113c7565b610459565b34801561020757600080fd5b506101a9610216366004611366565b610484565b34801561022757600080fd5b506101a96102363660046113c7565b6104e6565b61017b61024936600461141a565b610569565b34801561025a57600080fd5b5061017b61026936600461134c565b60016020526000908152604090205481565b34801561028757600080fd5b5060045461029b906001600160a01b031681565b6040516001600160a01b039091168152602001610145565b3480156102bf57600080fd5b5061017b7f0744af9828f5bfd2e0f842fd62674fe7c160a394d457c33e1a56eeae3a44a9ef81565b3480156102f357600080fd5b5061017b60035481565b34801561030957600080fd5b506101396103183660046113c7565b610715565b34801561032957600080fd5b506101a96103383660046113af565b61073e565b34801561034957600080fd5b506101a9610358366004611366565b6107bd565b34801561036957600080fd5b5061017b600081565b34801561037e57600080fd5b506101a961038d3660046113c7565b61088e565b34801561039e57600080fd5b506101a96103ad366004611366565b6108b4565b3480156103be57600080fd5b5061017b7f04824fcb60e7cc526d70b264caa65b62ed44d9c8e5d230e8ff6b0c7373843b8a81565b60006001600160e01b03198216637965db0b60e01b148061041757506301ffc9a760e01b6001600160e01b03198316145b92915050565b8061042757600080fd5b60045461043f906001600160a01b0316333084610917565b80600360008282546104519190611517565b909155505050565b6000828152602081905260409020600101546104758133610a55565b61047f8383610ab9565b505050565b8061048e57600080fd5b6004546001600160a01b03838116911614156104a957600080fd5b6104b582333084610917565b6001600160a01b038216600090815260016020526040812080548392906104dd908490611517565b90915550505050565b6001600160a01b038116331461055b5760405162461bcd60e51b815260206004820152602f60248201527f416363657373436f6e74726f6c3a2063616e206f6e6c792072656e6f756e636560448201526e103937b632b9903337b91039b2b63360891b60648201526084015b60405180910390fd5b6105658282610b3d565b5050565b600081608001354211156105b55760405162461bcd60e51b8152602060048201526013602482015272151c985b9cd858dd1a5bdb881d1bdbc81bdb19606a1b6044820152606401610552565b6004546001600160a01b03166105ce602084018461134c565b6001600160a01b031614156106115761060a6105f0604084016020850161134c565b60a0840135610605608086016060870161134c565b610ba2565b90506106c6565b6004546001600160a01b031661062d604084016020850161134c565b6001600160a01b0316146106995760405162461bcd60e51b815260206004820152602d60248201527f6f6e6c7920737570706f727473207377617073207769746820424e504c20746f60448201526c6b656e20696e766f6c7665642160981b6064820152608401610552565b6106c36106a9602084018461134c565b60a08401356106be608086016060870161134c565b610dac565b90505b8160c001358110156107105760405162461bcd60e51b8152602060048201526013602482015272151bdbc81b1a5d1d1b19481c9958d95a5d9959606a1b6044820152606401610552565b919050565b6000918252602082815260408084206001600160a01b0393909316845291905290205460ff1690565b7f0744af9828f5bfd2e0f842fd62674fe7c160a394d457c33e1a56eeae3a44a9ef6107698133610a55565b8161077357600080fd5b6003541580159061078657508160035410155b61078f57600080fd5b81600360008282546107a1919061156e565b9091555050600454610565906001600160a01b0316338461101b565b7f0744af9828f5bfd2e0f842fd62674fe7c160a394d457c33e1a56eeae3a44a9ef6107e88133610a55565b816107f257600080fd5b6004546001600160a01b038481169116141561080d57600080fd5b6001600160a01b0383166000908152600160205260409020541580159061084c57506001600160a01b0383166000908152600160205260409020548211155b61085557600080fd5b6001600160a01b0383166000908152600160205260408120805484929061087d90849061156e565b9091555061047f905083338461101b565b6000828152602081905260409020600101546108aa8133610a55565b61047f8383610b3d565b7f04824fcb60e7cc526d70b264caa65b62ed44d9c8e5d230e8ff6b0c7373843b8a6108df8133610a55565b6004546001600160a01b03848116911614156108fa57600080fd5b506001600160a01b03909116600090815260026020526040902055565b604080516001600160a01b0385811660248301528481166044830152606480830185905283518084039091018152608490920183526020820180516001600160e01b03166323b872dd60e01b179052915160009283929088169161097b9190611453565b6000604051808303816000865af19150503d80600081146109b8576040519150601f19603f3d011682016040523d82523d6000602084013e6109bd565b606091505b50915091508180156109e75750805115806109e75750808060200190518101906109e7919061138f565b610a4d5760405162461bcd60e51b815260206004820152603160248201527f5472616e7366657248656c7065723a3a7472616e7366657246726f6d3a207472604482015270185b9cd9995c919c9bdb4819985a5b1959607a1b6064820152608401610552565b505050505050565b610a5f8282610715565b61056557610a77816001600160a01b0316601461114c565b610a8283602061114c565b604051602001610a9392919061146f565b60408051601f198184030181529082905262461bcd60e51b8252610552916004016114e4565b610ac38282610715565b610565576000828152602081815260408083206001600160a01b03851684529091529020805460ff19166001179055610af93390565b6001600160a01b0316816001600160a01b0316837f2f8788117e7eff1d82e926ec794901d17c78024a50270940304540a733656f0d60405160405180910390a45050565b610b478282610715565b15610565576000828152602081815260408083206001600160a01b0385168085529252808320805460ff1916905551339285917ff6391f5c32d9c69d2a47ea670b442974b53935d1edc7fd64eb21e047a839171b9190a45050565b6004546000906001600160a01b0385811691161415610bc057600080fd5b6001600160a01b038416600090815260026020526040902054610c1b5760405162461bcd60e51b81526020600482015260136024820152721d1bdad95b881b9bdd081cdd5c1c1bdc9d1959606a1b6044820152606401610552565b82610c615760405162461bcd60e51b81526020600482015260166024820152750626e706c416d6f756e742063616e6e6f7420626520360541b6044820152606401610552565b6001600160a01b038416600090815260026020526040812054610c8590859061154f565b905080610cd45760405162461bcd60e51b815260206004820152601b60248201527f61637475616c416d6f756e744f75742063616e6e6f74206265203000000000006044820152606401610552565b6001600160a01b038516600090815260016020526040902054811115610d3c5760405162461bcd60e51b815260206004820152601760248201527f6e6f7420656e6f756768206f757470757420746f6b656e0000000000000000006044820152606401610552565b6001600160a01b03851660009081526001602052604081208054839290610d6490849061156e565b9091555050600454610d81906001600160a01b0316333087610917565b8360036000828254610d939190611517565b90915550610da4905085848361101b565b949350505050565b6004546000906001600160a01b0385811691161415610dca57600080fd5b6001600160a01b03841660009081526002602052604090205480610e265760405162461bcd60e51b81526020600482015260136024820152721d1bdad95b881b9bdd081cdd5c1c1bdc9d1959606a1b6044820152606401610552565b83610e735760405162461bcd60e51b815260206004820152601c60248201527f696e707574546f6b656e416d6f756e742063616e6e6f742062652030000000006044820152606401610552565b6000610e7f828661152f565b905080610ece5760405162461bcd60e51b815260206004820152601b60248201527f61637475616c416d6f756e744f75742063616e6e6f74206265203000000000006044820152606401610552565b6000600460009054906101000a90046001600160a01b03166001600160a01b031663313ce5676040518163ffffffff1660e01b815260040160206040518083038186803b158015610f1e57600080fd5b505afa158015610f32573d6000803e3d6000fd5b505050506040513d601f19601f82011682018060405250810190610f569190611432565b610f639060ff168361154f565b9050806003541015610fa95760405162461bcd60e51b815260206004820152600f60248201526e1b9bdd08195b9bdd59da08189b9c1b608a1b6044820152606401610552565b8060036000828254610fbb919061156e565b90915550610fcd905087333089610917565b6001600160a01b03871660009081526001602052604081208054889290610ff5908490611517565b9091555050600454611011906001600160a01b0316868361101b565b9695505050505050565b604080516001600160a01b038481166024830152604480830185905283518084039091018152606490920183526020820180516001600160e01b031663a9059cbb60e01b17905291516000928392908716916110779190611453565b6000604051808303816000865af19150503d80600081146110b4576040519150601f19603f3d011682016040523d82523d6000602084013e6110b9565b606091505b50915091508180156110e35750805115806110e35750808060200190518101906110e3919061138f565b6111455760405162461bcd60e51b815260206004820152602d60248201527f5472616e7366657248656c7065723a3a736166655472616e736665723a20747260448201526c185b9cd9995c8819985a5b1959609a1b6064820152608401610552565b5050505050565b6060600061115b83600261154f565b611166906002611517565b67ffffffffffffffff81111561118c57634e487b7160e01b600052604160045260246000fd5b6040519080825280601f01601f1916602001820160405280156111b6576020820181803683370190505b509050600360fc1b816000815181106111df57634e487b7160e01b600052603260045260246000fd5b60200101906001600160f81b031916908160001a905350600f60fb1b8160018151811061121c57634e487b7160e01b600052603260045260246000fd5b60200101906001600160f81b031916908160001a905350600061124084600261154f565b61124b906001611517565b90505b60018111156112df576f181899199a1a9b1b9c1cb0b131b232b360811b85600f166010811061128d57634e487b7160e01b600052603260045260246000fd5b1a60f81b8282815181106112b157634e487b7160e01b600052603260045260246000fd5b60200101906001600160f81b031916908160001a90535060049490941c936112d8816115b5565b905061124e565b50831561132e5760405162461bcd60e51b815260206004820181905260248201527f537472696e67733a20686578206c656e67746820696e73756666696369656e746044820152606401610552565b9392505050565b80356001600160a01b038116811461071057600080fd5b60006020828403121561135d578081fd5b61132e82611335565b60008060408385031215611378578081fd5b61138183611335565b946020939093013593505050565b6000602082840312156113a0578081fd5b8151801515811461132e578182fd5b6000602082840312156113c0578081fd5b5035919050565b600080604083850312156113d9578182fd5b823591506113e960208401611335565b90509250929050565b600060208284031215611403578081fd5b81356001600160e01b03198116811461132e578182fd5b6000610100828403121561142c578081fd5b50919050565b600060208284031215611443578081fd5b815160ff8116811461132e578182fd5b60008251611465818460208701611585565b9190910192915050565b7f416363657373436f6e74726f6c3a206163636f756e74200000000000000000008152600083516114a7816017850160208801611585565b7001034b99036b4b9b9b4b733903937b6329607d1b60179184019182015283516114d8816028840160208801611585565b01602801949350505050565b6020815260008251806020840152611503816040850160208701611585565b601f01601f19169190910160400192915050565b6000821982111561152a5761152a6115cc565b500190565b60008261154a57634e487b7160e01b81526012600452602481fd5b500490565b6000816000190483118215151615611569576115696115cc565b500290565b600082821015611580576115806115cc565b500390565b60005b838110156115a0578181015183820152602001611588565b838111156115af576000848401525b50505050565b6000816115c4576115c46115cc565b506000190190565b634e487b7160e01b600052601160045260246000fdfea264697066735822122035c01f935458dd3cdea35cdde2e5b65b0fad279dad9f0f992e29b059f164918a64736f6c63430008040033",
  "devdoc": {
    "kind": "dev",
    "methods": {
      "exactInputSingle((address,address,uint24,address,uint256,uint256,uint256,uint160))": {
        "params": {
          "params": "The parameters necessary for the swap, encoded as `ExactInputSingleParams` in calldata"
        },
        "returns": {
          "amountOut": "The amount of the received token"
        }
      },
      "getRoleAdmin(bytes32)": {
        "details": "Returns the admin role that controls `role`. See {grantRole} and {revokeRole}. To change a role's admin, use {_setRoleAdmin}."
      },
      "grantRole(bytes32,address)": {
        "details": "Grants `role` to `account`. If `account` had not been already granted `role`, emits a {RoleGranted} event. Requirements: - the caller must have ``role``'s admin role."
      },
      "hasRole(bytes32,address)": {
        "details": "Returns `true` if `account` has been granted `role`."
      },
      "renounceRole(bytes32,address)": {
        "details": "Revokes `role` from the calling account. Roles are often managed via {grantRole} and {revokeRole}: this function's purpose is to provide a mechanism for accounts to lose their privileges if they are compromised (such as when a trusted device is misplaced). If the calling account had been granted `role`, emits a {RoleRevoked} event. Requirements: - the caller must be `account`."
      },
      "revokeRole(bytes32,address)": {
        "details": "Revokes `role` from `account`. If `account` had been granted `role`, emits a {RoleRevoked} event. Requirements: - the caller must have ``role``'s admin role."
      },
      "supportsInterface(bytes4)": {
        "details": "See {IERC165-supportsInterface}."
      }
    },
    "version": 1
  },
  "userdoc": {
    "kind": "user",
    "methods": {
      "exactInputSingle((address,address,uint24,address,uint256,uint256,uint256,uint160))": {
        "notice": "Swaps `amountIn` of one token for as much as possible of another token"
      }
    },
    "version": 1
  },
  "storageLayout": {
    "storage": [
      {
        "astId": 2464,
        "contract": "src/SwapMarket/BNPLSwapMarketExample.sol:BNPLSwapMarketExample",
        "label": "_roles",
        "offset": 0,
        "slot": "0",
        "type": "t_mapping(t_bytes32,t_struct(RoleData)2459_storage)"
      },
      {
        "astId": 22669,
        "contract": "src/SwapMarket/BNPLSwapMarketExample.sol:BNPLSwapMarketExample",
        "label": "tokenBalances",
        "offset": 0,
        "slot": "1",
        "type": "t_mapping(t_address,t_uint256)"
      },
      {
        "astId": 22674,
        "contract": "src/SwapMarket/BNPLSwapMarketExample.sol:BNPLSwapMarketExample",
        "label": "bnplPrices",
        "offset": 0,
        "slot": "2",
        "type": "t_mapping(t_address,t_uint256)"
      },
      {
        "astId": 22676,
        "contract": "src/SwapMarket/BNPLSwapMarketExample.sol:BNPLSwapMarketExample",
        "label": "bnplBalance",
        "offset": 0,
        "slot": "3",
        "type": "t_uint256"
      },
      {
        "astId": 22678,
        "contract": "src/SwapMarket/BNPLSwapMarketExample.sol:BNPLSwapMarketExample",
        "label": "BNPL_TOKEN_ADDRESS",
        "offset": 0,
        "slot": "4",
        "type": "t_address"
      }
    ],
    "types": {
      "t_address": {
        "encoding": "inplace",
        "label": "address",
        "numberOfBytes": "20"
      },
      "t_bool": {
        "encoding": "inplace",
        "label": "bool",
        "numberOfBytes": "1"
      },
      "t_bytes32": {
        "encoding": "inplace",
        "label": "bytes32",
        "numberOfBytes": "32"
      },
      "t_mapping(t_address,t_bool)": {
        "encoding": "mapping",
        "key": "t_address",
        "label": "mapping(address => bool)",
        "numberOfBytes": "32",
        "value": "t_bool"
      },
      "t_mapping(t_address,t_uint256)": {
        "encoding": "mapping",
        "key": "t_address",
        "label": "mapping(address => uint256)",
        "numberOfBytes": "32",
        "value": "t_uint256"
      },
      "t_mapping(t_bytes32,t_struct(RoleData)2459_storage)": {
        "encoding": "mapping",
        "key": "t_bytes32",
        "label": "mapping(bytes32 => struct AccessControl.RoleData)",
        "numberOfBytes": "32",
        "value": "t_struct(RoleData)2459_storage"
      },
      "t_struct(RoleData)2459_storage": {
        "encoding": "inplace",
        "label": "struct AccessControl.RoleData",
        "members": [
          {
            "astId": 2456,
            "contract": "src/SwapMarket/BNPLSwapMarketExample.sol:BNPLSwapMarketExample",
            "label": "members",
            "offset": 0,
            "slot": "0",
            "type": "t_mapping(t_address,t_bool)"
          },
          {
            "astId": 2458,
            "contract": "src/SwapMarket/BNPLSwapMarketExample.sol:BNPLSwapMarketExample",
            "label": "adminRole",
            "offset": 0,
            "slot": "1",
            "type": "t_bytes32"
          }
        ],
        "numberOfBytes": "64"
      },
      "t_uint256": {
        "encoding": "inplace",
        "label": "uint256",
        "numberOfBytes": "32"
      }
    }
  }
}