{
  "address": "0x860ff23b060cA66614B27346EDc4F0D5F5D151Da",
  "abi": [
    {
      "inputs": [
        {
          "internalType": "address",
          "name": "",
          "type": "address"
        }
      ],
      "name": "aaveAssetToDepositAsset",
      "outputs": [
        {
          "internalType": "contract IERC20",
          "name": "",
          "type": "address"
        }
      ],
      "stateMutability": "view",
      "type": "function"
    },
    {
      "inputs": [
        {
          "internalType": "address",
          "name": "depositAsset",
          "type": "address"
        },
        {
          "internalType": "address",
          "name": "aaveAsset",
          "type": "address"
        }
      ],
      "name": "addAssetPair",
      "outputs": [],
      "stateMutability": "nonpayable",
      "type": "function"
    },
    {
      "inputs": [
        {
          "internalType": "address",
          "name": "asset",
          "type": "address"
        },
        {
          "internalType": "uint256",
          "name": "amount",
          "type": "uint256"
        },
        {
          "internalType": "address",
          "name": "onBehalfOf",
          "type": "address"
        },
        {
          "internalType": "uint16",
          "name": "",
          "type": "uint16"
        }
      ],
      "name": "deposit",
      "outputs": [],
      "stateMutability": "nonpayable",
      "type": "function"
    },
    {
      "inputs": [
        {
          "internalType": "address",
          "name": "",
          "type": "address"
        }
      ],
      "name": "depositAssetToAaveAsset",
      "outputs": [
        {
          "internalType": "contract IFakeAaveToken",
          "name": "",
          "type": "address"
        }
      ],
      "stateMutability": "view",
      "type": "function"
    },
    {
      "inputs": [
        {
          "internalType": "address",
          "name": "asset",
          "type": "address"
        },
        {
          "internalType": "uint256",
          "name": "amount",
          "type": "uint256"
        },
        {
          "internalType": "address",
          "name": "to",
          "type": "address"
        }
      ],
      "name": "withdraw",
      "outputs": [],
      "stateMutability": "nonpayable",
      "type": "function"
    }
  ],
  "transactionHash": "0x479e01c7c569730e69742b9d6ac61c794a61913e29e49e99ea807b8b43510d64",
  "args": [],
  "solcInputHash": "1ea8a523a0ea379748ee8243d1ba5420",
  "bytecode": "0x608060405234801561001057600080fd5b5061097d806100206000396000f3fe608060405234801561001057600080fd5b50600436106100575760003560e01c8063253f5d881461005c5780635b5b2b83146100a157806366bcf156146100b657806369328dec146100df578063e8eda9df146100f2575b600080fd5b61008561006a3660046107de565b6001602052600090815260409020546001600160a01b031681565b6040516001600160a01b03909116815260200160405180910390f35b6100b46100af3660046107ff565b610105565b005b6100856100c43660046107de565b6000602081905290815260409020546001600160a01b031681565b6100b46100ed366004610831565b610113565b6100b461010036600461086c565b610283565b61010f828261041e565b5050565b6001600160a01b0383166101425760405162461bcd60e51b815260040161013990610919565b60405180910390fd5b6001600160a01b0380841660009081526020819052604090205416806101aa5760405162461bcd60e51b815260206004820152601860248201527f61617665206173736574206e6f7420737570706f7274656400000000000000006044820152606401610139565b826101ec5760405162461bcd60e51b81526020600482015260126024820152710616d6f756e742063616e6e6f7420626520360741b6044820152606401610139565b6001600160a01b0382166102125760405162461bcd60e51b815260040161013990610919565b604051635a71967760e01b8152336004820152602481018490526001600160a01b03821690635a71967790604401600060405180830381600087803b15801561025a57600080fd5b505af115801561026e573d6000803e3d6000fd5b5050505061027d848385610553565b50505050565b6001600160a01b0384166102a95760405162461bcd60e51b815260040161013990610919565b6001600160a01b0380851660009081526020819052604090205416806103115760405162461bcd60e51b815260206004820152601b60248201527f6465706f736974206173736574206e6f7420737570706f7274656400000000006044820152606401610139565b836103535760405162461bcd60e51b81526020600482015260126024820152710616d6f756e742063616e6e6f7420626520360741b6044820152606401610139565b6001600160a01b0383166103a95760405162461bcd60e51b815260206004820152601960248201527f63616e6e6f74206265206f6e426568616c664f66203d3d2030000000000000006044820152606401610139565b6103b585333087610684565b60405163a55b427360e01b81526001600160a01b0384811660048301526024820186905282169063a55b427390604401600060405180830381600087803b1580156103ff57600080fd5b505af1158015610413573d6000803e3d6000fd5b505050505050505050565b6001600160a01b0382811660009081526020819052604090205416156104975760405162461bcd60e51b815260206004820152602860248201527f74686973206465706f73697420617373657420697320616c726561647920726560448201526719da5cdd195c995960c21b6064820152608401610139565b6001600160a01b03818116600090815260016020526040902054161561050d5760405162461bcd60e51b815260206004820152602560248201527f74686973206161766520617373657420697320616c72656164792072656769736044820152641d195c995960da1b6064820152608401610139565b6001600160a01b039182166000818152602081815260408083208054969095166001600160a01b0319968716811790955593825260019052919091208054909216179055565b604080516001600160a01b038481166024830152604480830185905283518084039091018152606490920183526020820180516001600160e01b031663a9059cbb60e01b17905291516000928392908716916105af91906108e0565b6000604051808303816000865af19150503d80600081146105ec576040519150601f19603f3d011682016040523d82523d6000602084013e6105f1565b606091505b509150915081801561061b57508051158061061b57508080602001905181019061061b91906108c0565b61067d5760405162461bcd60e51b815260206004820152602d60248201527f5472616e7366657248656c7065723a3a736166655472616e736665723a20747260448201526c185b9cd9995c8819985a5b1959609a1b6064820152608401610139565b5050505050565b604080516001600160a01b0385811660248301528481166044830152606480830185905283518084039091018152608490920183526020820180516001600160e01b03166323b872dd60e01b17905291516000928392908816916106e891906108e0565b6000604051808303816000865af19150503d8060008114610725576040519150601f19603f3d011682016040523d82523d6000602084013e61072a565b606091505b509150915081801561075457508051158061075457508080602001905181019061075491906108c0565b6107ba5760405162461bcd60e51b815260206004820152603160248201527f5472616e7366657248656c7065723a3a7472616e7366657246726f6d3a207472604482015270185b9cd9995c919c9bdb4819985a5b1959607a1b6064820152608401610139565b505050505050565b80356001600160a01b03811681146107d957600080fd5b919050565b6000602082840312156107ef578081fd5b6107f8826107c2565b9392505050565b60008060408385031215610811578081fd5b61081a836107c2565b9150610828602084016107c2565b90509250929050565b600080600060608486031215610845578081fd5b61084e846107c2565b925060208401359150610863604085016107c2565b90509250925092565b60008060008060808587031215610881578081fd5b61088a856107c2565b93506020850135925061089f604086016107c2565b9150606085013561ffff811681146108b5578182fd5b939692955090935050565b6000602082840312156108d1578081fd5b815180151581146107f8578182fd5b60008251815b8181101561090057602081860181015185830152016108e6565b8181111561090e5782828501525b509190910192915050565b602080825260149082015273063616e6e6f74206265206173736574203d3d20360641b60408201526060019056fea2646970667358221220949a86f6e40569b6b3d6b7760e9c7b65d55b8e0ac292847b618a41497ad5353c64736f6c63430008040033",
  "devdoc": {
    "kind": "dev",
    "methods": {},
    "version": 1
  },
  "userdoc": {
    "kind": "user",
    "methods": {},
    "version": 1
  },
  "storageLayout": {
    "storage": [
      {
        "astId": 13521,
        "contract": "src/Aave/FakeAave/FakeAaveLendingPool.sol:FakeAaveLendingPool",
        "label": "depositAssetToAaveAsset",
        "offset": 0,
        "slot": "0",
        "type": "t_mapping(t_address,t_contract(IFakeAaveToken)13981)"
      },
      {
        "astId": 13526,
        "contract": "src/Aave/FakeAave/FakeAaveLendingPool.sol:FakeAaveLendingPool",
        "label": "aaveAssetToDepositAsset",
        "offset": 0,
        "slot": "1",
        "type": "t_mapping(t_address,t_contract(IERC20)4115)"
      }
    ],
    "types": {
      "t_address": {
        "encoding": "inplace",
        "label": "address",
        "numberOfBytes": "20"
      },
      "t_contract(IERC20)4115": {
        "encoding": "inplace",
        "label": "contract IERC20",
        "numberOfBytes": "20"
      },
      "t_contract(IFakeAaveToken)13981": {
        "encoding": "inplace",
        "label": "contract IFakeAaveToken",
        "numberOfBytes": "20"
      },
      "t_mapping(t_address,t_contract(IERC20)4115)": {
        "encoding": "mapping",
        "key": "t_address",
        "label": "mapping(address => contract IERC20)",
        "numberOfBytes": "32",
        "value": "t_contract(IERC20)4115"
      },
      "t_mapping(t_address,t_contract(IFakeAaveToken)13981)": {
        "encoding": "mapping",
        "key": "t_address",
        "label": "mapping(address => contract IFakeAaveToken)",
        "numberOfBytes": "32",
        "value": "t_contract(IFakeAaveToken)13981"
      }
    }
  }
}