{
  "address": "0x1717e93cEA4e9E5cBb92bFEA13113fffc10c3973",
  "abi": [
    {
      "anonymous": false,
      "inputs": [
        {
          "indexed": true,
          "internalType": "bytes32",
          "name": "role",
          "type": "bytes32"
        },
        {
          "indexed": true,
          "internalType": "bytes32",
          "name": "previousAdminRole",
          "type": "bytes32"
        },
        {
          "indexed": true,
          "internalType": "bytes32",
          "name": "newAdminRole",
          "type": "bytes32"
        }
      ],
      "name": "RoleAdminChanged",
      "type": "event"
    },
    {
      "anonymous": false,
      "inputs": [
        {
          "indexed": true,
          "internalType": "bytes32",
          "name": "role",
          "type": "bytes32"
        },
        {
          "indexed": true,
          "internalType": "address",
          "name": "account",
          "type": "address"
        },
        {
          "indexed": true,
          "internalType": "address",
          "name": "sender",
          "type": "address"
        }
      ],
      "name": "RoleGranted",
      "type": "event"
    },
    {
      "anonymous": false,
      "inputs": [
        {
          "indexed": true,
          "internalType": "bytes32",
          "name": "role",
          "type": "bytes32"
        },
        {
          "indexed": true,
          "internalType": "address",
          "name": "account",
          "type": "address"
        },
        {
          "indexed": true,
          "internalType": "address",
          "name": "sender",
          "type": "address"
        }
      ],
      "name": "RoleRevoked",
      "type": "event"
    },
    {
      "inputs": [],
      "name": "CONFIGURE_NODE_MANAGER_ROLE",
      "outputs": [
        {
          "internalType": "bytes32",
          "name": "",
          "type": "bytes32"
        }
      ],
      "stateMutability": "view",
      "type": "function"
    },
    {
      "inputs": [],
      "name": "DEFAULT_ADMIN_ROLE",
      "outputs": [
        {
          "internalType": "bytes32",
          "name": "",
          "type": "bytes32"
        }
      ],
      "stateMutability": "view",
      "type": "function"
    },
    {
      "inputs": [
        {
          "components": [
            {
              "internalType": "address",
              "name": "tokenContract",
              "type": "address"
            },
            {
              "internalType": "address",
              "name": "swapMarket",
              "type": "address"
            },
            {
              "internalType": "uint24",
              "name": "swapMarketPoolFee",
              "type": "uint24"
            },
            {
              "internalType": "uint8",
              "name": "decimals",
              "type": "uint8"
            },
            {
              "internalType": "uint256",
              "name": "valueMultiplier",
              "type": "uint256"
            },
            {
              "internalType": "uint16",
              "name": "unusedFundsLendingMode",
              "type": "uint16"
            },
            {
              "internalType": "address",
              "name": "unusedFundsLendingContract",
              "type": "address"
            },
            {
              "internalType": "address",
              "name": "unusedFundsLendingToken",
              "type": "address"
            },
            {
              "internalType": "string",
              "name": "symbol",
              "type": "string"
            },
            {
              "internalType": "string",
              "name": "poolSymbol",
              "type": "string"
            }
          ],
          "internalType": "struct IBankNodeManager.LendableToken",
          "name": "_lendableToken",
          "type": "tuple"
        },
        {
          "internalType": "uint8",
          "name": "enabled",
          "type": "uint8"
        }
      ],
      "name": "addLendableToken",
      "outputs": [],
      "stateMutability": "nonpayable",
      "type": "function"
    },
    {
      "inputs": [
        {
          "internalType": "address",
          "name": "",
          "type": "address"
        }
      ],
      "name": "bankNodeAddressToId",
      "outputs": [
        {
          "internalType": "uint32",
          "name": "",
          "type": "uint32"
        }
      ],
      "stateMutability": "view",
      "type": "function"
    },
    {
      "inputs": [],
      "name": "bankNodeCount",
      "outputs": [
        {
          "internalType": "uint32",
          "name": "",
          "type": "uint32"
        }
      ],
      "stateMutability": "view",
      "type": "function"
    },
    {
      "inputs": [
        {
          "internalType": "uint32",
          "name": "bankNodeId",
          "type": "uint32"
        }
      ],
      "name": "bankNodeIdExists",
      "outputs": [
        {
          "internalType": "uint256",
          "name": "",
          "type": "uint256"
        }
      ],
      "stateMutability": "view",
      "type": "function"
    },
    {
      "inputs": [],
      "name": "bankNodeLendingRewards",
      "outputs": [
        {
          "internalType": "contract BankNodeLendingRewards",
          "name": "",
          "type": "address"
        }
      ],
      "stateMutability": "view",
      "type": "function"
    },
    {
      "inputs": [
        {
          "internalType": "uint32",
          "name": "",
          "type": "uint32"
        }
      ],
      "name": "bankNodes",
      "outputs": [
        {
          "internalType": "address",
          "name": "bankNodeContract",
          "type": "address"
        },
        {
          "internalType": "address",
          "name": "bankNodeToken",
          "type": "address"
        },
        {
          "internalType": "address",
          "name": "bnplStakingPoolContract",
          "type": "address"
        },
        {
          "internalType": "address",
          "name": "bnplStakingPoolToken",
          "type": "address"
        },
        {
          "internalType": "address",
          "name": "lendableToken",
          "type": "address"
        },
        {
          "internalType": "address",
          "name": "creator",
          "type": "address"
        },
        {
          "internalType": "uint32",
          "name": "id",
          "type": "uint32"
        },
        {
          "internalType": "uint64",
          "name": "createdAt",
          "type": "uint64"
        },
        {
          "internalType": "string",
          "name": "nodeName",
          "type": "string"
        },
        {
          "internalType": "string",
          "name": "website",
          "type": "string"
        }
      ],
      "stateMutability": "view",
      "type": "function"
    },
    {
      "inputs": [],
      "name": "bnplToken",
      "outputs": [
        {
          "internalType": "contract IERC20",
          "name": "",
          "type": "address"
        }
      ],
      "stateMutability": "view",
      "type": "function"
    },
    {
      "inputs": [
        {
          "internalType": "address",
          "name": "operator",
          "type": "address"
        },
        {
          "internalType": "uint256",
          "name": "tokensToBond",
          "type": "uint256"
        },
        {
          "internalType": "address",
          "name": "lendableTokenAddress",
          "type": "address"
        },
        {
          "internalType": "string",
          "name": "nodeName",
          "type": "string"
        },
        {
          "internalType": "string",
          "name": "website",
          "type": "string"
        }
      ],
      "name": "createBondedBankNode",
      "outputs": [
        {
          "internalType": "uint256",
          "name": "",
          "type": "uint256"
        }
      ],
      "stateMutability": "nonpayable",
      "type": "function"
    },
    {
      "inputs": [
        {
          "internalType": "address",
          "name": "",
          "type": "address"
        }
      ],
      "name": "enabledLendableTokens",
      "outputs": [
        {
          "internalType": "uint8",
          "name": "",
          "type": "uint8"
        }
      ],
      "stateMutability": "view",
      "type": "function"
    },
    {
      "inputs": [
        {
          "internalType": "uint32",
          "name": "bankNodeId",
          "type": "uint32"
        }
      ],
      "name": "getBankNodeContract",
      "outputs": [
        {
          "internalType": "address",
          "name": "",
          "type": "address"
        }
      ],
      "stateMutability": "view",
      "type": "function"
    },
    {
      "inputs": [
        {
          "internalType": "uint32",
          "name": "bankNodeId",
          "type": "uint32"
        }
      ],
      "name": "getBankNodeLendableToken",
      "outputs": [
        {
          "internalType": "address",
          "name": "",
          "type": "address"
        }
      ],
      "stateMutability": "view",
      "type": "function"
    },
    {
      "inputs": [
        {
          "internalType": "uint32",
          "name": "bankNodeId",
          "type": "uint32"
        }
      ],
      "name": "getBankNodeStakingPoolContract",
      "outputs": [
        {
          "internalType": "address",
          "name": "",
          "type": "address"
        }
      ],
      "stateMutability": "view",
      "type": "function"
    },
    {
      "inputs": [
        {
          "internalType": "uint32",
          "name": "bankNodeId",
          "type": "uint32"
        }
      ],
      "name": "getBankNodeStakingPoolToken",
      "outputs": [
        {
          "internalType": "address",
          "name": "",
          "type": "address"
        }
      ],
      "stateMutability": "view",
      "type": "function"
    },
    {
      "inputs": [
        {
          "internalType": "uint32",
          "name": "bankNodeId",
          "type": "uint32"
        }
      ],
      "name": "getBankNodeToken",
      "outputs": [
        {
          "internalType": "address",
          "name": "",
          "type": "address"
        }
      ],
      "stateMutability": "view",
      "type": "function"
    },
    {
      "inputs": [
        {
          "internalType": "bytes32",
          "name": "role",
          "type": "bytes32"
        }
      ],
      "name": "getRoleAdmin",
      "outputs": [
        {
          "internalType": "bytes32",
          "name": "",
          "type": "bytes32"
        }
      ],
      "stateMutability": "view",
      "type": "function"
    },
    {
      "inputs": [
        {
          "internalType": "bytes32",
          "name": "role",
          "type": "bytes32"
        },
        {
          "internalType": "uint256",
          "name": "index",
          "type": "uint256"
        }
      ],
      "name": "getRoleMember",
      "outputs": [
        {
          "internalType": "address",
          "name": "",
          "type": "address"
        }
      ],
      "stateMutability": "view",
      "type": "function"
    },
    {
      "inputs": [
        {
          "internalType": "bytes32",
          "name": "role",
          "type": "bytes32"
        }
      ],
      "name": "getRoleMemberCount",
      "outputs": [
        {
          "internalType": "uint256",
          "name": "",
          "type": "uint256"
        }
      ],
      "stateMutability": "view",
      "type": "function"
    },
    {
      "inputs": [
        {
          "internalType": "bytes32",
          "name": "role",
          "type": "bytes32"
        },
        {
          "internalType": "address",
          "name": "account",
          "type": "address"
        }
      ],
      "name": "grantRole",
      "outputs": [],
      "stateMutability": "nonpayable",
      "type": "function"
    },
    {
      "inputs": [
        {
          "internalType": "bytes32",
          "name": "role",
          "type": "bytes32"
        },
        {
          "internalType": "address",
          "name": "account",
          "type": "address"
        }
      ],
      "name": "hasRole",
      "outputs": [
        {
          "internalType": "bool",
          "name": "",
          "type": "bool"
        }
      ],
      "stateMutability": "view",
      "type": "function"
    },
    {
      "inputs": [
        {
          "internalType": "contract IBNPLProtocolConfig",
          "name": "_protocolConfig",
          "type": "address"
        },
        {
          "internalType": "address",
          "name": "_configurator",
          "type": "address"
        },
        {
          "internalType": "uint256",
          "name": "_minimumBankNodeBondedAmount",
          "type": "uint256"
        },
        {
          "internalType": "contract BankNodeLendingRewards",
          "name": "_bankNodeLendingRewards",
          "type": "address"
        }
      ],
      "name": "initialize",
      "outputs": [],
      "stateMutability": "nonpayable",
      "type": "function"
    },
    {
      "inputs": [
        {
          "internalType": "address",
          "name": "",
          "type": "address"
        }
      ],
      "name": "lendableTokens",
      "outputs": [
        {
          "internalType": "address",
          "name": "tokenContract",
          "type": "address"
        },
        {
          "internalType": "address",
          "name": "swapMarket",
          "type": "address"
        },
        {
          "internalType": "uint24",
          "name": "swapMarketPoolFee",
          "type": "uint24"
        },
        {
          "internalType": "uint8",
          "name": "decimals",
          "type": "uint8"
        },
        {
          "internalType": "uint256",
          "name": "valueMultiplier",
          "type": "uint256"
        },
        {
          "internalType": "uint16",
          "name": "unusedFundsLendingMode",
          "type": "uint16"
        },
        {
          "internalType": "address",
          "name": "unusedFundsLendingContract",
          "type": "address"
        },
        {
          "internalType": "address",
          "name": "unusedFundsLendingToken",
          "type": "address"
        },
        {
          "internalType": "string",
          "name": "symbol",
          "type": "string"
        },
        {
          "internalType": "string",
          "name": "poolSymbol",
          "type": "string"
        }
      ],
      "stateMutability": "view",
      "type": "function"
    },
    {
      "inputs": [],
      "name": "minimumBankNodeBondedAmount",
      "outputs": [
        {
          "internalType": "uint256",
          "name": "",
          "type": "uint256"
        }
      ],
      "stateMutability": "view",
      "type": "function"
    },
    {
      "inputs": [],
      "name": "protocolConfig",
      "outputs": [
        {
          "internalType": "contract IBNPLProtocolConfig",
          "name": "",
          "type": "address"
        }
      ],
      "stateMutability": "view",
      "type": "function"
    },
    {
      "inputs": [
        {
          "internalType": "bytes32",
          "name": "role",
          "type": "bytes32"
        },
        {
          "internalType": "address",
          "name": "account",
          "type": "address"
        }
      ],
      "name": "renounceRole",
      "outputs": [],
      "stateMutability": "nonpayable",
      "type": "function"
    },
    {
      "inputs": [
        {
          "internalType": "bytes32",
          "name": "role",
          "type": "bytes32"
        },
        {
          "internalType": "address",
          "name": "account",
          "type": "address"
        }
      ],
      "name": "revokeRole",
      "outputs": [],
      "stateMutability": "nonpayable",
      "type": "function"
    },
    {
      "inputs": [
        {
          "internalType": "address",
          "name": "tokenContract",
          "type": "address"
        },
        {
          "internalType": "uint8",
          "name": "enabled",
          "type": "uint8"
        }
      ],
      "name": "setLendableTokenStatus",
      "outputs": [],
      "stateMutability": "nonpayable",
      "type": "function"
    },
    {
      "inputs": [
        {
          "internalType": "uint256",
          "name": "_minimumBankNodeBondedAmount",
          "type": "uint256"
        }
      ],
      "name": "setMinimumBankNodeBondedAmount",
      "outputs": [],
      "stateMutability": "nonpayable",
      "type": "function"
    },
    {
      "inputs": [
        {
          "internalType": "bytes4",
          "name": "interfaceId",
          "type": "bytes4"
        }
      ],
      "name": "supportsInterface",
      "outputs": [
        {
          "internalType": "bool",
          "name": "",
          "type": "bool"
        }
      ],
      "stateMutability": "view",
      "type": "function"
    }
  ],
  "transactionHash": "0xe9d695ef6a5399c0f86d29f64ff2b0e184e23a755bed2be952430b930f103545",
  "args": [],
  "solcInputHash": "5db0db624a6dd07d1009191e5f6b75b1",
  "bytecode": "0x608060405234801561001057600080fd5b50613bbb806100206000396000f3fe60806040523480156200001157600080fd5b5060043610620002015760003560e01c8063a217fddf1162000119578063cc98437511620000af578063dedc8d07116200007a578063dedc8d071462000515578063e8288695146200051f578063ee7bd9851462000536578063f5efbb4f146200054d57600080fd5b8063cc98437514620004bb578063cf65b30b14620004d0578063d547741f14620004e7578063d84c676414620004fe57600080fd5b8063c972898b11620000f0578063c972898b1462000464578063c9a3f180146200047b578063ca15c873146200048d578063cbe9889314620004a457600080fd5b8063a217fddf146200040b578063ae12b71d1462000414578063be203094146200044d57600080fd5b806336568abe116200019b5780637e2e610e11620001665780637e2e610e14620003975780639010d07c14620003c657806391d1485414620003dd578063a0407e1414620003f457600080fd5b806336568abe14620003045780633926b03e146200031b57806348e3eb331462000351578063504ecd74146200036857600080fd5b8063146b7d8711620001dc578063146b7d871462000297578063248a9ca314620002b05780632e7596e714620002d65780632f2ff15d14620002ed57600080fd5b8063016d4cb8146200020657806301ffc9a714620002495780630d14f57b1462000271575b600080fd5b6200022f620002173660046200292e565b60fe6020526000908152604090205463ffffffff1681565b60405163ffffffff90911681526020015b60405180910390f35b620002606200025a36600462002abc565b62000562565b604051901515815260200162000240565b62000288620002823660046200294d565b62000590565b60405190815260200162000240565b620002ae620002a836600462002b5e565b6200090b565b005b62000288620002c136600462002a4f565b60009081526065602052604090206001015490565b620002ae620002e7366004620029f4565b62000cfb565b620002ae620002fe36600462002a68565b62000d98565b620002ae6200031536600462002a68565b62000dc3565b61010054620003389064010000000090046001600160a01b031681565b6040516001600160a01b03909116815260200162000240565b6200028860008051602062003b6683398151915281565b6200037f6200037936600462002be4565b62000de9565b604051620002409a9998979695949392919062002cec565b620003ae620003a83660046200292e565b62000f84565b604051620002409a9998979695949392919062002d80565b62000338620003d736600462002a9a565b6200108b565b62000260620003ee36600462002a68565b620010ac565b620003386200040536600462002be4565b620010d7565b62000288600081565b6200043a620004253660046200292e565b60fb6020526000908152604090205460ff1681565b60405160ff909116815260200162000240565b620002ae6200045e36600462002ae6565b6200113f565b620002886200047536600462002be4565b620014da565b610100546200022f9063ffffffff1681565b620002886200049e36600462002a4f565b6200151a565b62000338620004b536600462002be4565b62001533565b6101015462000338906001600160a01b031681565b62000338620004e136600462002be4565b6200159e565b620002ae620004f836600462002a68565b62001609565b620002ae6200050f36600462002a4f565b62001615565b6200028860ff5481565b620003386200053036600462002be4565b62001637565b620003386200054736600462002be4565b620016a2565b6101025462000338906001600160a01b031681565b60006001600160e01b03198216635a05180f60e01b14806200058a57506200058a826200170d565b92915050565b6000600260c9541415620005c15760405162461bcd60e51b8152600401620005b89062002f0f565b60405180910390fd5b600260c95560ff548710801590620005d95750600087115b620006275760405162461bcd60e51b815260206004820152601860248201527f4e6f7420656e6f75676820746f6b656e7320626f6e64656400000000000000006044820152606401620005b8565b6001600160a01b038816620006765760405162461bcd60e51b815260206004820152601460248201527306f70657261746f722063616e6e6f7420626520360641b6044820152606401620005b8565b6001600160a01b038616620006ce5760405162461bcd60e51b815260206004820181905260248201527f6c656e6461626c65546f6b656e416464726573732063616e6e6f7420626520306044820152606401620005b8565b61010054620006e59063ffffffff166001620030c6565b610100805463ffffffff191663ffffffff929092169182179055600080808062000713858e808f8f62001744565b9350935093509350600060fd60008763ffffffff1663ffffffff16815260200190815260200160002090508560fe6000876001600160a01b03166001600160a01b0316815260200190815260200160002060006101000a81548163ffffffff021916908363ffffffff160217905550848160000160006101000a8154816001600160a01b0302191690836001600160a01b03160217905550838160010160006101000a8154816001600160a01b0302191690836001600160a01b03160217905550828160020160006101000a8154816001600160a01b0302191690836001600160a01b03160217905550818160030160006101000a8154816001600160a01b0302191690836001600160a01b031602179055508b8160040160006101000a8154816001600160a01b0302191690836001600160a01b03160217905550338160050160006101000a8154816001600160a01b0302191690836001600160a01b03160217905550858160050160146101000a81548163ffffffff021916908363ffffffff160217905550428160050160186101000a81548167ffffffffffffffff021916908367ffffffffffffffff1602179055508a8a826006019190620008db92919062002819565b50620008ec600782018a8a62002819565b5050600160c955505063ffffffff9092169a9950505050505050505050565b600260c9541415620009315760405162461bcd60e51b8152600401620005b89062002f0f565b600260c95560008051602062003b6683398151915262000952813362001e81565b60006200096360208501856200292e565b6001600160a01b03161415620009bc5760405162461bcd60e51b815260206004820152601b60248201527f746f6b656e436f6e7472616374206d757374206e6f74206265203000000000006044820152606401620005b8565b6000620009d060408501602086016200292e565b6001600160a01b0316141562000a295760405162461bcd60e51b815260206004820152601860248201527f737761704d61726b6574206d757374206e6f74206265203000000000000000006044820152606401620005b8565b600083608001351162000a7f5760405162461bcd60e51b815260206004820152601b60248201527f76616c75654d756c7469706c696572206d757374206265203e203000000000006044820152606401620005b8565b60ff8216158062000a9357508160ff166001145b62000ad25760405162461bcd60e51b815260206004820152600e60248201526d0656e61626c65642031206f7220360941b6044820152606401620005b8565b600060fc8162000ae660208701876200292e565b6001600160a01b03168152602080820192909252604001600020915062000b10908501856200292e565b81546001600160a01b0319166001600160a01b039190911617815562000b3d60408501602086016200292e565b6001820180546001600160a01b0319166001600160a01b039290921691909117905562000b71606085016040860162002bbf565b60018201805462ffffff92909216600160a01b0262ffffff60a01b1990921691909117905562000ba8608085016060860162002c0a565b60018201805460ff92909216600160b81b0260ff60b81b199092169190911790556080840135600282015562000be560c0850160a0860162002b9b565b60038201805461ffff191661ffff9290921691909117905562000c0f60e0850160c086016200292e565b6003820180546001600160a01b0392909216620100000262010000600160b01b031990921691909117905562000c4d610100850160e086016200292e565b6004820180546001600160a01b0319166001600160a01b039290921691909117905562000c7f61010085018562003063565b62000c8f91600584019162002819565b5062000ca061012085018562003063565b62000cb091600684019162002819565b508260fb600062000cc560208801886200292e565b6001600160a01b031681526020810191909152604001600020805460ff191660ff929092169190911790555050600160c9555050565b60008051602062003b6683398151915262000d17813362001e81565b60ff8216158062000d2b57508160ff166001145b62000d6a5760405162461bcd60e51b815260206004820152600e60248201526d0656e61626c65642031206f7220360941b6044820152606401620005b8565b506001600160a01b0391909116600090815260fb60205260409020805460ff191660ff909216919091179055565b62000da4828262001ef4565b600082815260976020526040902062000dbe908262001f1e565b505050565b62000dcf828262001f35565b600082815260976020526040902062000dbe908262001fb3565b60fd6020526000908152604090208054600182015460028301546003840154600485015460058601546006870180546001600160a01b03978816989688169795861696948616959384169493831693600160a01b840463ffffffff1693600160c01b900467ffffffffffffffff1692909162000e65906200317a565b80601f016020809104026020016040519081016040528092919081815260200182805462000e93906200317a565b801562000ee45780601f1062000eb85761010080835404028352916020019162000ee4565b820191906000526020600020905b81548152906001019060200180831162000ec657829003601f168201915b50505050509080600701805462000efb906200317a565b80601f016020809104026020016040519081016040528092919081815260200182805462000f29906200317a565b801562000f7a5780601f1062000f4e5761010080835404028352916020019162000f7a565b820191906000526020600020905b81548152906001019060200180831162000f5c57829003601f168201915b505050505090508a565b60fc602052600090815260409020805460018201546002830154600384015460048501546005860180546001600160a01b039687169787871697600160a01b880462ffffff1697600160b81b900460ff16969561ffff8116956201000090910482169491169262000ff5906200317a565b80601f016020809104026020016040519081016040528092919081815260200182805462001023906200317a565b8015620010745780601f10620010485761010080835404028352916020019162001074565b820191906000526020600020905b8154815290600101906020018083116200105657829003601f168201915b50505050509080600601805462000efb906200317a565b6000828152609760205260408120620010a5908362001fca565b9392505050565b60009182526065602090815260408084206001600160a01b0393909316845291905290205460ff1690565b600060018263ffffffff1610158015620010fe57506101005463ffffffff90811690831611155b6200111d5760405162461bcd60e51b8152600401620005b89062002eca565b5063ffffffff16600090815260fd60205260409020546001600160a01b031690565b600054610100900460ff168062001159575060005460ff16155b620011785760405162461bcd60e51b8152600401620005b89062002e7c565b600054610100900460ff161580156200119b576000805461ffff19166101011790555b600260c9541415620011c15760405162461bcd60e51b8152600401620005b89062002f0f565b600260c9556001600160a01b0385166200121e5760405162461bcd60e51b815260206004820152601b60248201527f5f70726f746f636f6c436f6e6669672063616e6e6f74206265203000000000006044820152606401620005b8565b6001600160a01b038416620012765760405162461bcd60e51b815260206004820152601960248201527f5f636f6e666967757261746f722063616e6e6f742062652030000000000000006044820152606401620005b8565b60008311620012d95760405162461bcd60e51b815260206004820152602860248201527f5f6d696e696d756d42616e6b4e6f6465426f6e646564416d6f756e742063616e60448201526706e6f7420626520360c41b6064820152608401620005b8565b620012e362001fd8565b620012ed62001fd8565b620012f762001fd8565b6200130162001fd8565b6200130b6200204a565b61010280546001600160a01b0319166001600160a01b03871690811790915560ff849055610100805463ffffffff1916905560408051631c93581f60e11b81529051633926b03e91600480820192602092909190829003018186803b1580156200137457600080fd5b505afa15801562001389573d6000803e3d6000fd5b505050506040513d601f19601f82011682018060405250810190620013af919062002b3f565b6101008054640100000000600160c01b0319166401000000006001600160a01b0393841681029190911791829055900416620014275760405162461bcd60e51b815260206004820152601660248201527505f626e706c546f6b656e2063616e6e6f7420626520360541b6044820152606401620005b8565b61010180546001600160a01b0319166001600160a01b038416908117909155620014a05760405162461bcd60e51b815260206004820152602360248201527f5f62616e6b4e6f64654c656e64696e67526577617264732063616e6e6f74206260448201526206520360ec1b6064820152608401620005b8565b620014bb60008051602062003b6683398151915285620020c0565b600160c9558015620014d3576000805461ff00191690555b5050505050565b600060018263ffffffff16101580156200150157506101005463ffffffff90811690831611155b6200150e57600062001511565b60015b60ff1692915050565b60008181526097602052604081206200058a90620020cc565b600060018263ffffffff16101580156200155a57506101005463ffffffff90811690831611155b620015795760405162461bcd60e51b8152600401620005b89062002eca565b5063ffffffff16600090815260fd60205260409020600101546001600160a01b031690565b600060018263ffffffff1610158015620015c557506101005463ffffffff90811690831611155b620015e45760405162461bcd60e51b8152600401620005b89062002eca565b5063ffffffff16600090815260fd60205260409020600401546001600160a01b031690565b62000dcf8282620020d7565b60008051602062003b6683398151915262001631813362001e81565b5060ff55565b600060018263ffffffff16101580156200165e57506101005463ffffffff90811690831611155b6200167d5760405162461bcd60e51b8152600401620005b89062002eca565b5063ffffffff16600090815260fd60205260409020600301546001600160a01b031690565b600060018263ffffffff1610158015620016c957506101005463ffffffff90811690831611155b620016e85760405162461bcd60e51b8152600401620005b89062002eca565b5063ffffffff16600090815260fd60205260409020600201546001600160a01b031690565b60006001600160e01b03198216637965db0b60e01b14806200058a57506301ffc9a760e01b6001600160e01b03198316146200058a565b60008080806001600160a01b038516620017a15760405162461bcd60e51b815260206004820181905260248201527f6c656e6461626c65546f6b656e416464726573732063616e6e6f7420626520306044820152606401620005b8565b6001600160a01b03858116600090815260fc60209081526040808320815161014081018352815486168152600182015480871694820194909452600160a01b840462ffffff1692810192909252600160b81b90920460ff16606082015260028201546080820152600382015461ffff811660a0830152620100009004841660c0820152600482015490931660e0840152600581018054929392610100840191906200184c906200317a565b80601f01602080910402602001604051908101604052809291908181526020018280546200187a906200317a565b8015620018cb5780601f106200189f57610100808354040283529160200191620018cb565b820191906000526020600020905b815481529060010190602001808311620018ad57829003601f168201915b50505050508152602001600682018054620018e6906200317a565b80601f016020809104026020016040519081016040528092919081815260200182805462001914906200317a565b8015620019655780601f10620019395761010080835404028352916020019162001965565b820191906000526020600020905b8154815290600101906020018083116200194757829003601f168201915b5050505050815250509050856001600160a01b031681600001516001600160a01b03161480156200199a575060008160800151115b620019e15760405162461bcd60e51b815260206004820152601660248201527534b73b30b634b2103632b73230b13632903a37b5b2b760511b6044820152606401620005b8565b6001600160a01b038616600090815260fb602052604090205460ff1660011462001a4e5760405162461bcd60e51b815260206004820152601a60248201527f6c656e6461626c6520746f6b656e206e6f7420656e61626c65640000000000006044820152606401620005b8565b61010260009054906101000a90046001600160a01b03166001600160a01b031663ed7b60f26040518163ffffffff1660e01b815260040160206040518083038186803b15801562001a9e57600080fd5b505afa15801562001ab3573d6000803e3d6000fd5b505050506040513d601f19601f8201168201806040525081019062001ad9919062002b3f565b60405162001ae790620028a8565b6001600160a01b039091168152604060208201819052600090820152606001604051809103906000f08015801562001b23573d6000803e3d6000fd5b50945061010260009054906101000a90046001600160a01b03166001600160a01b031663ba33a0506040518163ffffffff1660e01b815260040160206040518083038186803b15801562001b7657600080fd5b505afa15801562001b8b573d6000803e3d6000fd5b505050506040513d601f19601f8201168201806040525081019062001bb1919062002b3f565b60405162001bbf90620028a8565b6001600160a01b039091168152604060208201819052600090820152606001604051809103906000f08015801562001bfb573d6000803e3d6000fd5b50925062001c5a6040518060400160405280601681526020017510985b9ada5b99c8139bd91948141bdbdb081093941360521b815250604051806040016040528060058152602001641c1093941360da1b815250601260008762002101565b6101005490925062001c809064010000000090046001600160a01b031633858a62002228565b61010054604051637b809f7b60e11b81526401000000009091046001600160a01b039081166004830152838116602483015286811660448301523360648301526084820189905284169063f7013ef69060a401600060405180830381600087803b15801562001cee57600080fd5b505af115801562001d03573d6000803e3d6000fd5b505050610120820151606083015162001d229250819060008962002101565b9350846001600160a01b031663485e4344604051806101a001604052808d63ffffffff168152602001846040015162ffffff168152602001306001600160a01b031681526020018c6001600160a01b031681526020018b6001600160a01b0316815260200161010060049054906101000a90046001600160a01b03166001600160a01b0316815260200184602001516001600160a01b031681526020018460a0015161ffff1681526020018460c001516001600160a01b031681526020018460e001516001600160a01b03168152602001866001600160a01b0316815260200184600001516001600160a01b03168152602001876001600160a01b03168152506040518263ffffffff1660e01b815260040162001e40919062002f46565b600060405180830381600087803b15801562001e5b57600080fd5b505af115801562001e70573d6000803e3d6000fd5b505050505095509550955095915050565b62001e8d8282620010ac565b62001ef05762001ea8816001600160a01b0316601462002370565b62001eb583602062002370565b60405160200162001ec892919062002c73565b60408051601f198184030181529082905262461bcd60e51b8252620005b89160040162002e13565b5050565b60008281526065602052604090206001015462001f12813362001e81565b62000dbe838362002566565b6000620010a5836001600160a01b038416620025f0565b6001600160a01b038116331462001fa75760405162461bcd60e51b815260206004820152602f60248201527f416363657373436f6e74726f6c3a2063616e206f6e6c792072656e6f756e636560448201526e103937b632b9903337b91039b2b63360891b6064820152608401620005b8565b62001ef0828262002642565b6000620010a5836001600160a01b038416620026ac565b6000620010a58383620027d4565b600054610100900460ff168062001ff2575060005460ff16155b620020115760405162461bcd60e51b8152600401620005b89062002e7c565b600054610100900460ff1615801562002034576000805461ffff19166101011790555b801562002047576000805461ff00191690555b50565b600054610100900460ff168062002064575060005460ff16155b620020835760405162461bcd60e51b8152600401620005b89062002e7c565b600054610100900460ff16158015620020a6576000805461ffff19166101011790555b600160c955801562002047576000805461ff001916905550565b62000da482826200280d565b60006200058a825490565b600082815260656020526040902060010154620020f5813362001e81565b62000dbe838362002642565b60008061010260009054906101000a90046001600160a01b03166001600160a01b031663e37b6a906040518163ffffffff1660e01b815260040160206040518083038186803b1580156200215457600080fd5b505afa15801562002169573d6000803e3d6000fd5b505050506040513d601f19601f820116820180604052508101906200218f919062002b3f565b60405163641078a360e11b90620021b3908a908a908a908a908a9060240162002e28565b60408051601f198184030181529181526020820180516001600160e01b03166001600160e01b0319909416939093179092529051620021f290620028a8565b620021ff92919062002de5565b604051809103906000f0801580156200221c573d6000803e3d6000fd5b50979650505050505050565b604080516001600160a01b0385811660248301528481166044830152606480830185905283518084039091018152608490920183526020820180516001600160e01b03166323b872dd60e01b17905291516000928392908816916200228e919062002c55565b6000604051808303816000865af19150503d8060008114620022cd576040519150601f19603f3d011682016040523d82523d6000602084013e620022d2565b606091505b5091509150818015620023005750805115806200230057508080602001905181019062002300919062002a2d565b620023685760405162461bcd60e51b815260206004820152603160248201527f5472616e7366657248656c7065723a3a7472616e7366657246726f6d3a207472604482015270185b9cd9995c919c9bdb4819985a5b1959607a1b6064820152608401620005b8565b505050505050565b6060600062002381836002620030f1565b6200238e906002620030ab565b67ffffffffffffffff811115620023b557634e487b7160e01b600052604160045260246000fd5b6040519080825280601f01601f191660200182016040528015620023e0576020820181803683370190505b509050600360fc1b816000815181106200240a57634e487b7160e01b600052603260045260246000fd5b60200101906001600160f81b031916908160001a905350600f60fb1b816001815181106200244857634e487b7160e01b600052603260045260246000fd5b60200101906001600160f81b031916908160001a90535060006200246e846002620030f1565b6200247b906001620030ab565b90505b600181111562002515576f181899199a1a9b1b9c1cb0b131b232b360811b85600f1660108110620024bf57634e487b7160e01b600052603260045260246000fd5b1a60f81b828281518110620024e457634e487b7160e01b600052603260045260246000fd5b60200101906001600160f81b031916908160001a90535060049490941c936200250d8162003160565b90506200247e565b508315620010a55760405162461bcd60e51b815260206004820181905260248201527f537472696e67733a20686578206c656e67746820696e73756666696369656e746044820152606401620005b8565b620025728282620010ac565b62001ef05760008281526065602090815260408083206001600160a01b03851684529091529020805460ff19166001179055620025ac3390565b6001600160a01b0316816001600160a01b0316837f2f8788117e7eff1d82e926ec794901d17c78024a50270940304540a733656f0d60405160405180910390a45050565b600081815260018301602052604081205462002639575081546001818101845560008481526020808220909301849055845484825282860190935260409020919091556200058a565b5060006200058a565b6200264e8282620010ac565b1562001ef05760008281526065602090815260408083206001600160a01b0385168085529252808320805460ff1916905551339285917ff6391f5c32d9c69d2a47ea670b442974b53935d1edc7fd64eb21e047a839171b9190a45050565b60008181526001830160205260408120548015620027c9576000620026d360018362003113565b8554909150600090620026e99060019062003113565b90508181146200276d5760008660000182815481106200271957634e487b7160e01b600052603260045260246000fd5b90600052602060002001549050808760000184815481106200274b57634e487b7160e01b600052603260045260246000fd5b6000918252602080832090910192909255918252600188019052604090208390555b85548690806200278d57634e487b7160e01b600052603160045260246000fd5b6001900381819060005260206000200160009055905585600101600086815260200190815260200160002060009055600193505050506200058a565b60009150506200058a565b6000826000018281548110620027fa57634e487b7160e01b600052603260045260246000fd5b9060005260206000200154905092915050565b62001ef0828262002566565b82805462002827906200317a565b90600052602060002090601f0160209004810192826200284b576000855562002896565b82601f10620028665782800160ff1982351617855562002896565b8280016001018555821562002896579182015b828111156200289657823582559160200191906001019062002879565b50620028a4929150620028b6565b5090565b61098280620031e483390190565b5b80821115620028a45760008155600101620028b7565b60008083601f840112620028df578182fd5b50813567ffffffffffffffff811115620028f7578182fd5b6020830191508360208285010111156200291057600080fd5b9250929050565b803560ff811681146200292957600080fd5b919050565b60006020828403121562002940578081fd5b8135620010a581620031cd565b600080600080600080600060a0888a03121562002968578283fd5b87356200297581620031cd565b96506020880135955060408801356200298e81620031cd565b9450606088013567ffffffffffffffff80821115620029ab578485fd5b620029b98b838c01620028cd565b909650945060808a0135915080821115620029d2578384fd5b50620029e18a828b01620028cd565b989b979a50959850939692959293505050565b6000806040838503121562002a07578182fd5b823562002a1481620031cd565b915062002a246020840162002917565b90509250929050565b60006020828403121562002a3f578081fd5b81518015158114620010a5578182fd5b60006020828403121562002a61578081fd5b5035919050565b6000806040838503121562002a7b578182fd5b82359150602083013562002a8f81620031cd565b809150509250929050565b6000806040838503121562002aad578182fd5b50508035926020909101359150565b60006020828403121562002ace578081fd5b81356001600160e01b031981168114620010a5578182fd5b6000806000806080858703121562002afc578384fd5b843562002b0981620031cd565b9350602085013562002b1b81620031cd565b925060408501359150606085013562002b3481620031cd565b939692955090935050565b60006020828403121562002b51578081fd5b8151620010a581620031cd565b6000806040838503121562002b71578182fd5b823567ffffffffffffffff81111562002b88578283fd5b8301610140818603121562002a14578283fd5b60006020828403121562002bad578081fd5b813561ffff81168114620010a5578182fd5b60006020828403121562002bd1578081fd5b813562ffffff81168114620010a5578182fd5b60006020828403121562002bf6578081fd5b813563ffffffff81168114620010a5578182fd5b60006020828403121562002c1c578081fd5b620010a58262002917565b6000815180845262002c418160208601602086016200312d565b601f01601f19169290920160200192915050565b6000825162002c698184602087016200312d565b9190910192915050565b7f416363657373436f6e74726f6c3a206163636f756e742000000000000000000081526000835162002cad8160178501602088016200312d565b7001034b99036b4b9b9b4b733903937b6329607d1b601791840191820152835162002ce08160288401602088016200312d565b01602801949350505050565b6001600160a01b038b811682528a81166020830152898116604083015288811660608301528781166080830152861660a082015263ffffffff851660c082015267ffffffffffffffff841660e0820152610140610100820181905260009062002d588382018662002c27565b905082810361012084015262002d6f818562002c27565b9d9c50505050505050505050505050565b6001600160a01b038b811682528a8116602083015262ffffff8a16604083015260ff891660608301526080820188905261ffff871660a083015285811660c0830152841660e0820152610140610100820181905260009062002d588382018662002c27565b6001600160a01b038316815260406020820181905260009062002e0b9083018462002c27565b949350505050565b602081526000620010a5602083018462002c27565b60a08152600062002e3d60a083018862002c27565b828103602084015262002e51818862002c27565b60ff96909616604084015250506001600160a01b039283166060820152911660809091015292915050565b6020808252602e908201527f496e697469616c697a61626c653a20636f6e747261637420697320616c72656160408201526d191e481a5b9a5d1a585b1a5e995960921b606082015260800190565b60208082526025908201527f496e76616c6964206f7220756e726567697374657265642062616e6b206e6f64604082015264652069642160d81b606082015260800190565b6020808252601f908201527f5265656e7472616e637947756172643a207265656e7472616e742063616c6c00604082015260600190565b815163ffffffff1681526101a08101602083015162002f6c602084018262ffffff169052565b50604083015162002f8860408401826001600160a01b03169052565b50606083015162002fa460608401826001600160a01b03169052565b50608083015162002fc060808401826001600160a01b03169052565b5060a083015162002fdc60a08401826001600160a01b03169052565b5060c083015162002ff860c08401826001600160a01b03169052565b5060e08301516200300f60e084018261ffff169052565b50610100838101516001600160a01b03908116918401919091526101208085015182169084015261014080850151821690840152610160808501518216908401526101809384015116929091019190915290565b6000808335601e198436030181126200307a578283fd5b83018035915067ffffffffffffffff82111562003095578283fd5b6020019150368190038213156200291057600080fd5b60008219821115620030c157620030c1620031b7565b500190565b600063ffffffff808316818516808303821115620030e857620030e8620031b7565b01949350505050565b60008160001904831182151516156200310e576200310e620031b7565b500290565b600082821015620031285762003128620031b7565b500390565b60005b838110156200314a57818101518382015260200162003130565b838111156200315a576000848401525b50505050565b600081620031725762003172620031b7565b506000190190565b600181811c908216806200318f57607f821691505b60208210811415620031b157634e487b7160e01b600052602260045260246000fd5b50919050565b634e487b7160e01b600052601160045260246000fd5b6001600160a01b03811681146200204757600080fdfe60806040526040516109823803806109828339810160408190526100229161047d565b61004d60017fa3f0ad74e5423aebfd80d3ef4346578335a9a72aeaee59ff6cb3582b35133d51610588565b60008051602061093b8339815191521461007757634e487b7160e01b600052600160045260246000fd5b6100838282600061008a565b50506105ed565b61009383610164565b6040516001600160a01b038416907f1cf3b03a6cf19fa2baba4df148e9dcabedea7f8a5c07840e207e5c089be95d3e90600090a26000825111806100d45750805b1561015f5761015d836001600160a01b0316635c60da1b6040518163ffffffff1660e01b815260040160206040518083038186803b15801561011557600080fd5b505afa158015610129573d6000803e3d6000fd5b505050506040513d601f19601f8201168201806040525081019061014d9190610463565b8361030460201b6100291760201c565b505b505050565b6101778161033060201b6100551760201c565b6101d65760405162461bcd60e51b815260206004820152602560248201527f455243313936373a206e657720626561636f6e206973206e6f74206120636f6e6044820152641d1c9858dd60da1b60648201526084015b60405180910390fd5b610259816001600160a01b0316635c60da1b6040518163ffffffff1660e01b815260040160206040518083038186803b15801561021257600080fd5b505afa158015610226573d6000803e3d6000fd5b505050506040513d601f19601f8201168201806040525081019061024a9190610463565b61033060201b6100551760201c565b6102be5760405162461bcd60e51b815260206004820152603060248201527f455243313936373a20626561636f6e20696d706c656d656e746174696f6e206960448201526f1cc81b9bdd08184818dbdb9d1c9858dd60821b60648201526084016101cd565b806102e360008051602061093b83398151915260001b61033660201b61005b1760201c565b80546001600160a01b0319166001600160a01b039290921691909117905550565b6060610329838360405180606001604052806027815260200161095b60279139610339565b9392505050565b3b151590565b90565b6060833b6103985760405162461bcd60e51b815260206004820152602660248201527f416464726573733a2064656c65676174652063616c6c20746f206e6f6e2d636f6044820152651b9d1c9858dd60d21b60648201526084016101cd565b600080856001600160a01b0316856040516103b39190610539565b600060405180830381855af49150503d80600081146103ee576040519150601f19603f3d011682016040523d82523d6000602084013e6103f3565b606091505b50909250905061040482828661040e565b9695505050505050565b6060831561041d575081610329565b82511561042d5782518084602001fd5b8160405162461bcd60e51b81526004016101cd9190610555565b80516001600160a01b038116811461045e57600080fd5b919050565b600060208284031215610474578081fd5b61032982610447565b6000806040838503121561048f578081fd5b61049883610447565b60208401519092506001600160401b03808211156104b4578283fd5b818501915085601f8301126104c7578283fd5b8151818111156104d9576104d96105d7565b604051601f8201601f19908116603f01168101908382118183101715610501576105016105d7565b81604052828152886020848701011115610519578586fd5b61052a8360208301602088016105ab565b80955050505050509250929050565b6000825161054b8184602087016105ab565b9190910192915050565b60208152600082518060208401526105748160408501602087016105ab565b601f01601f19169190910160400192915050565b6000828210156105a657634e487b7160e01b81526011600452602481fd5b500390565b60005b838110156105c65781810151838201526020016105ae565b8381111561015d5750506000910152565b634e487b7160e01b600052604160045260246000fd5b61033f806105fc6000396000f3fe60806040523661001357610011610017565b005b6100115b61002761002261005e565b610106565b565b606061004e83836040518060600160405280602781526020016102e36027913961012a565b9392505050565b3b151590565b90565b60006100917fa3f0ad74e5423aebfd80d3ef4346578335a9a72aeaee59ff6cb3582b35133d50546001600160a01b031690565b6001600160a01b0316635c60da1b6040518163ffffffff1660e01b815260040160206040518083038186803b1580156100c957600080fd5b505afa1580156100dd573d6000803e3d6000fd5b505050506040513d601f19601f82011682018060405250810190610101919061023c565b905090565b3660008037600080366000845af43d6000803e808015610125573d6000f35b3d6000fd5b6060833b61018e5760405162461bcd60e51b815260206004820152602660248201527f416464726573733a2064656c65676174652063616c6c20746f206e6f6e2d636f6044820152651b9d1c9858dd60d21b60648201526084015b60405180910390fd5b600080856001600160a01b0316856040516101a99190610263565b600060405180830381855af49150503d80600081146101e4576040519150601f19603f3d011682016040523d82523d6000602084013e6101e9565b606091505b50915091506101f9828286610203565b9695505050505050565b6060831561021257508161004e565b8251156102225782518084602001fd5b8160405162461bcd60e51b8152600401610185919061027f565b60006020828403121561024d578081fd5b81516001600160a01b038116811461004e578182fd5b600082516102758184602087016102b2565b9190910192915050565b602081526000825180602084015261029e8160408501602087016102b2565b601f01601f19169190910160400192915050565b60005b838110156102cd5781810151838201526020016102b5565b838111156102dc576000848401525b5050505056fe416464726573733a206c6f772d6c6576656c2064656c65676174652063616c6c206661696c6564a26469706673582212200f9929ed3f3b47071afa968f70fa99aba21abdabc1843824d7b681956b9e564c64736f6c63430008040033a3f0ad74e5423aebfd80d3ef4346578335a9a72aeaee59ff6cb3582b35133d50416464726573733a206c6f772d6c6576656c2064656c65676174652063616c6c206661696c65640ad3a65bf5c1d8a3d51e90e1913822ee5821f860aa4540afa2b7633d63cf32fba2646970667358221220f940511d23731090187ae1f0e9887a1e43d55c5a8825279464d3922f37306a6564736f6c63430008040033",
  "devdoc": {
    "kind": "dev",
    "methods": {
      "createBondedBankNode(address,uint256,address,string,string)": {
        "params": {
          "lendableTokenAddress": "Which lendable token will be lent to borrowers for this bank node (ex. the address of USDT's erc20 smart contract)",
          "nodeName": "the official name of the bank node",
          "operator": "The node operator who will be assigned the permissions of bank node admin for the newly created bank node",
          "tokensToBond": "The number of BNPL tokens to bond for the node",
          "website": "the official website of the bank node"
        }
      },
      "getRoleAdmin(bytes32)": {
        "details": "Returns the admin role that controls `role`. See {grantRole} and {revokeRole}. To change a role's admin, use {_setRoleAdmin}."
      },
      "getRoleMember(bytes32,uint256)": {
        "details": "Returns one of the accounts that have `role`. `index` must be a value between 0 and {getRoleMemberCount}, non-inclusive. Role bearers are not sorted in any particular way, and their ordering may change at any point. WARNING: When using {getRoleMember} and {getRoleMemberCount}, make sure you perform all queries on the same block. See the following https://forum.openzeppelin.com/t/iterating-over-elements-on-enumerableset-in-openzeppelin-contracts/2296[forum post] for more information."
      },
      "getRoleMemberCount(bytes32)": {
        "details": "Returns the number of accounts that have `role`. Can be used together with {getRoleMember} to enumerate all bearers of a role."
      },
      "grantRole(bytes32,address)": {
        "details": "Overload {grantRole} to track enumerable memberships"
      },
      "hasRole(bytes32,address)": {
        "details": "Returns `true` if `account` has been granted `role`."
      },
      "renounceRole(bytes32,address)": {
        "details": "Overload {renounceRole} to track enumerable memberships"
      },
      "revokeRole(bytes32,address)": {
        "details": "Overload {revokeRole} to track enumerable memberships"
      },
      "supportsInterface(bytes4)": {
        "details": "See {IERC165-supportsInterface}."
      }
    },
    "version": 1
  },
  "userdoc": {
    "kind": "user",
    "methods": {
      "addLendableToken((address,address,uint24,uint8,uint256,uint16,address,address,string,string),uint8)": {
        "notice": "allows admins with the role \"CONFIGURE_NODE_MANAGER_ROLE\" to add support for a new ERC20 token to be used as lendable tokens for new bank nodes"
      },
      "createBondedBankNode(address,uint256,address,string,string)": {
        "notice": "creates a new bonded bank node"
      },
      "setLendableTokenStatus(address,uint8)": {
        "notice": "allows admins with the role \"CONFIGURE_NODE_MANAGER_ROLE\" to enable/disable support for ERC20 tokens to be used as lendable tokens for new bank nodes (does not effect existing nodes)"
      },
      "setMinimumBankNodeBondedAmount(uint256)": {
        "notice": "allows admins with the role \"CONFIGURE_NODE_MANAGER_ROLE\" to set the minimum BNPL to bond per node"
      }
    },
    "version": 1
  },
  "storageLayout": {
    "storage": [
      {
        "astId": 648,
        "contract": "src/Management/BankNodeManager.sol:BankNodeManager",
        "label": "_initialized",
        "offset": 0,
        "slot": "0",
        "type": "t_bool"
      },
      {
        "astId": 651,
        "contract": "src/Management/BankNodeManager.sol:BankNodeManager",
        "label": "_initializing",
        "offset": 1,
        "slot": "0",
        "type": "t_bool"
      },
      {
        "astId": 1578,
        "contract": "src/Management/BankNodeManager.sol:BankNodeManager",
        "label": "__gap",
        "offset": 0,
        "slot": "1",
        "type": "t_array(t_uint256)50_storage"
      },
      {
        "astId": 1827,
        "contract": "src/Management/BankNodeManager.sol:BankNodeManager",
        "label": "__gap",
        "offset": 0,
        "slot": "51",
        "type": "t_array(t_uint256)50_storage"
      },
      {
        "astId": 258,
        "contract": "src/Management/BankNodeManager.sol:BankNodeManager",
        "label": "_roles",
        "offset": 0,
        "slot": "101",
        "type": "t_mapping(t_bytes32,t_struct(RoleData)253_storage)"
      },
      {
        "astId": 543,
        "contract": "src/Management/BankNodeManager.sol:BankNodeManager",
        "label": "__gap",
        "offset": 0,
        "slot": "102",
        "type": "t_array(t_uint256)49_storage"
      },
      {
        "astId": 45,
        "contract": "src/Management/BankNodeManager.sol:BankNodeManager",
        "label": "_roleMembers",
        "offset": 0,
        "slot": "151",
        "type": "t_mapping(t_bytes32,t_struct(AddressSet)2152_storage)"
      },
      {
        "astId": 208,
        "contract": "src/Management/BankNodeManager.sol:BankNodeManager",
        "label": "__gap",
        "offset": 0,
        "slot": "152",
        "type": "t_array(t_uint256)49_storage"
      },
      {
        "astId": 815,
        "contract": "src/Management/BankNodeManager.sol:BankNodeManager",
        "label": "_status",
        "offset": 0,
        "slot": "201",
        "type": "t_uint256"
      },
      {
        "astId": 858,
        "contract": "src/Management/BankNodeManager.sol:BankNodeManager",
        "label": "__gap",
        "offset": 0,
        "slot": "202",
        "type": "t_array(t_uint256)49_storage"
      },
      {
        "astId": 19711,
        "contract": "src/Management/BankNodeManager.sol:BankNodeManager",
        "label": "enabledLendableTokens",
        "offset": 0,
        "slot": "251",
        "type": "t_mapping(t_address,t_uint8)"
      },
      {
        "astId": 19717,
        "contract": "src/Management/BankNodeManager.sol:BankNodeManager",
        "label": "lendableTokens",
        "offset": 0,
        "slot": "252",
        "type": "t_mapping(t_address,t_struct(LendableToken)20666_storage)"
      },
      {
        "astId": 19723,
        "contract": "src/Management/BankNodeManager.sol:BankNodeManager",
        "label": "bankNodes",
        "offset": 0,
        "slot": "253",
        "type": "t_mapping(t_uint32,t_struct(BankNode)20687_storage)"
      },
      {
        "astId": 19728,
        "contract": "src/Management/BankNodeManager.sol:BankNodeManager",
        "label": "bankNodeAddressToId",
        "offset": 0,
        "slot": "254",
        "type": "t_mapping(t_address,t_uint32)"
      },
      {
        "astId": 19731,
        "contract": "src/Management/BankNodeManager.sol:BankNodeManager",
        "label": "minimumBankNodeBondedAmount",
        "offset": 0,
        "slot": "255",
        "type": "t_uint256"
      },
      {
        "astId": 19734,
        "contract": "src/Management/BankNodeManager.sol:BankNodeManager",
        "label": "bankNodeCount",
        "offset": 0,
        "slot": "256",
        "type": "t_uint32"
      },
      {
        "astId": 19738,
        "contract": "src/Management/BankNodeManager.sol:BankNodeManager",
        "label": "bnplToken",
        "offset": 4,
        "slot": "256",
        "type": "t_contract(IERC20)4115"
      },
      {
        "astId": 19742,
        "contract": "src/Management/BankNodeManager.sol:BankNodeManager",
        "label": "bankNodeLendingRewards",
        "offset": 0,
        "slot": "257",
        "type": "t_contract(BankNodeLendingRewards)21604"
      },
      {
        "astId": 19746,
        "contract": "src/Management/BankNodeManager.sol:BankNodeManager",
        "label": "protocolConfig",
        "offset": 0,
        "slot": "258",
        "type": "t_contract(IBNPLProtocolConfig)21216"
      }
    ],
    "types": {
      "t_address": {
        "encoding": "inplace",
        "label": "address",
        "numberOfBytes": "20"
      },
      "t_array(t_bytes32)dyn_storage": {
        "base": "t_bytes32",
        "encoding": "dynamic_array",
        "label": "bytes32[]",
        "numberOfBytes": "32"
      },
      "t_array(t_uint256)49_storage": {
        "base": "t_uint256",
        "encoding": "inplace",
        "label": "uint256[49]",
        "numberOfBytes": "1568"
      },
      "t_array(t_uint256)50_storage": {
        "base": "t_uint256",
        "encoding": "inplace",
        "label": "uint256[50]",
        "numberOfBytes": "1600"
      },
      "t_bool": {
        "encoding": "inplace",
        "label": "bool",
        "numberOfBytes": "1"
      },
      "t_bytes32": {
        "encoding": "inplace",
        "label": "bytes32",
        "numberOfBytes": "32"
      },
      "t_contract(BankNodeLendingRewards)21604": {
        "encoding": "inplace",
        "label": "contract BankNodeLendingRewards",
        "numberOfBytes": "20"
      },
      "t_contract(IBNPLProtocolConfig)21216": {
        "encoding": "inplace",
        "label": "contract IBNPLProtocolConfig",
        "numberOfBytes": "20"
      },
      "t_contract(IERC20)4115": {
        "encoding": "inplace",
        "label": "contract IERC20",
        "numberOfBytes": "20"
      },
      "t_mapping(t_address,t_bool)": {
        "encoding": "mapping",
        "key": "t_address",
        "label": "mapping(address => bool)",
        "numberOfBytes": "32",
        "value": "t_bool"
      },
      "t_mapping(t_address,t_struct(LendableToken)20666_storage)": {
        "encoding": "mapping",
        "key": "t_address",
        "label": "mapping(address => struct IBankNodeManager.LendableToken)",
        "numberOfBytes": "32",
        "value": "t_struct(LendableToken)20666_storage"
      },
      "t_mapping(t_address,t_uint32)": {
        "encoding": "mapping",
        "key": "t_address",
        "label": "mapping(address => uint32)",
        "numberOfBytes": "32",
        "value": "t_uint32"
      },
      "t_mapping(t_address,t_uint8)": {
        "encoding": "mapping",
        "key": "t_address",
        "label": "mapping(address => uint8)",
        "numberOfBytes": "32",
        "value": "t_uint8"
      },
      "t_mapping(t_bytes32,t_struct(AddressSet)2152_storage)": {
        "encoding": "mapping",
        "key": "t_bytes32",
        "label": "mapping(bytes32 => struct EnumerableSetUpgradeable.AddressSet)",
        "numberOfBytes": "32",
        "value": "t_struct(AddressSet)2152_storage"
      },
      "t_mapping(t_bytes32,t_struct(RoleData)253_storage)": {
        "encoding": "mapping",
        "key": "t_bytes32",
        "label": "mapping(bytes32 => struct AccessControlUpgradeable.RoleData)",
        "numberOfBytes": "32",
        "value": "t_struct(RoleData)253_storage"
      },
      "t_mapping(t_bytes32,t_uint256)": {
        "encoding": "mapping",
        "key": "t_bytes32",
        "label": "mapping(bytes32 => uint256)",
        "numberOfBytes": "32",
        "value": "t_uint256"
      },
      "t_mapping(t_uint32,t_struct(BankNode)20687_storage)": {
        "encoding": "mapping",
        "key": "t_uint32",
        "label": "mapping(uint32 => struct IBankNodeManager.BankNode)",
        "numberOfBytes": "32",
        "value": "t_struct(BankNode)20687_storage"
      },
      "t_string_storage": {
        "encoding": "bytes",
        "label": "string",
        "numberOfBytes": "32"
      },
      "t_struct(AddressSet)2152_storage": {
        "encoding": "inplace",
        "label": "struct EnumerableSetUpgradeable.AddressSet",
        "members": [
          {
            "astId": 2151,
            "contract": "src/Management/BankNodeManager.sol:BankNodeManager",
            "label": "_inner",
            "offset": 0,
            "slot": "0",
            "type": "t_struct(Set)1851_storage"
          }
        ],
        "numberOfBytes": "64"
      },
      "t_struct(BankNode)20687_storage": {
        "encoding": "inplace",
        "label": "struct IBankNodeManager.BankNode",
        "members": [
          {
            "astId": 20668,
            "contract": "src/Management/BankNodeManager.sol:BankNodeManager",
            "label": "bankNodeContract",
            "offset": 0,
            "slot": "0",
            "type": "t_address"
          },
          {
            "astId": 20670,
            "contract": "src/Management/BankNodeManager.sol:BankNodeManager",
            "label": "bankNodeToken",
            "offset": 0,
            "slot": "1",
            "type": "t_address"
          },
          {
            "astId": 20672,
            "contract": "src/Management/BankNodeManager.sol:BankNodeManager",
            "label": "bnplStakingPoolContract",
            "offset": 0,
            "slot": "2",
            "type": "t_address"
          },
          {
            "astId": 20674,
            "contract": "src/Management/BankNodeManager.sol:BankNodeManager",
            "label": "bnplStakingPoolToken",
            "offset": 0,
            "slot": "3",
            "type": "t_address"
          },
          {
            "astId": 20676,
            "contract": "src/Management/BankNodeManager.sol:BankNodeManager",
            "label": "lendableToken",
            "offset": 0,
            "slot": "4",
            "type": "t_address"
          },
          {
            "astId": 20678,
            "contract": "src/Management/BankNodeManager.sol:BankNodeManager",
            "label": "creator",
            "offset": 0,
            "slot": "5",
            "type": "t_address"
          },
          {
            "astId": 20680,
            "contract": "src/Management/BankNodeManager.sol:BankNodeManager",
            "label": "id",
            "offset": 20,
            "slot": "5",
            "type": "t_uint32"
          },
          {
            "astId": 20682,
            "contract": "src/Management/BankNodeManager.sol:BankNodeManager",
            "label": "createdAt",
            "offset": 24,
            "slot": "5",
            "type": "t_uint64"
          },
          {
            "astId": 20684,
            "contract": "src/Management/BankNodeManager.sol:BankNodeManager",
            "label": "nodeName",
            "offset": 0,
            "slot": "6",
            "type": "t_string_storage"
          },
          {
            "astId": 20686,
            "contract": "src/Management/BankNodeManager.sol:BankNodeManager",
            "label": "website",
            "offset": 0,
            "slot": "7",
            "type": "t_string_storage"
          }
        ],
        "numberOfBytes": "256"
      },
      "t_struct(LendableToken)20666_storage": {
        "encoding": "inplace",
        "label": "struct IBankNodeManager.LendableToken",
        "members": [
          {
            "astId": 20647,
            "contract": "src/Management/BankNodeManager.sol:BankNodeManager",
            "label": "tokenContract",
            "offset": 0,
            "slot": "0",
            "type": "t_address"
          },
          {
            "astId": 20649,
            "contract": "src/Management/BankNodeManager.sol:BankNodeManager",
            "label": "swapMarket",
            "offset": 0,
            "slot": "1",
            "type": "t_address"
          },
          {
            "astId": 20651,
            "contract": "src/Management/BankNodeManager.sol:BankNodeManager",
            "label": "swapMarketPoolFee",
            "offset": 20,
            "slot": "1",
            "type": "t_uint24"
          },
          {
            "astId": 20653,
            "contract": "src/Management/BankNodeManager.sol:BankNodeManager",
            "label": "decimals",
            "offset": 23,
            "slot": "1",
            "type": "t_uint8"
          },
          {
            "astId": 20655,
            "contract": "src/Management/BankNodeManager.sol:BankNodeManager",
            "label": "valueMultiplier",
            "offset": 0,
            "slot": "2",
            "type": "t_uint256"
          },
          {
            "astId": 20657,
            "contract": "src/Management/BankNodeManager.sol:BankNodeManager",
            "label": "unusedFundsLendingMode",
            "offset": 0,
            "slot": "3",
            "type": "t_uint16"
          },
          {
            "astId": 20659,
            "contract": "src/Management/BankNodeManager.sol:BankNodeManager",
            "label": "unusedFundsLendingContract",
            "offset": 2,
            "slot": "3",
            "type": "t_address"
          },
          {
            "astId": 20661,
            "contract": "src/Management/BankNodeManager.sol:BankNodeManager",
            "label": "unusedFundsLendingToken",
            "offset": 0,
            "slot": "4",
            "type": "t_address"
          },
          {
            "astId": 20663,
            "contract": "src/Management/BankNodeManager.sol:BankNodeManager",
            "label": "symbol",
            "offset": 0,
            "slot": "5",
            "type": "t_string_storage"
          },
          {
            "astId": 20665,
            "contract": "src/Management/BankNodeManager.sol:BankNodeManager",
            "label": "poolSymbol",
            "offset": 0,
            "slot": "6",
            "type": "t_string_storage"
          }
        ],
        "numberOfBytes": "224"
      },
      "t_struct(RoleData)253_storage": {
        "encoding": "inplace",
        "label": "struct AccessControlUpgradeable.RoleData",
        "members": [
          {
            "astId": 250,
            "contract": "src/Management/BankNodeManager.sol:BankNodeManager",
            "label": "members",
            "offset": 0,
            "slot": "0",
            "type": "t_mapping(t_address,t_bool)"
          },
          {
            "astId": 252,
            "contract": "src/Management/BankNodeManager.sol:BankNodeManager",
            "label": "adminRole",
            "offset": 0,
            "slot": "1",
            "type": "t_bytes32"
          }
        ],
        "numberOfBytes": "64"
      },
      "t_struct(Set)1851_storage": {
        "encoding": "inplace",
        "label": "struct EnumerableSetUpgradeable.Set",
        "members": [
          {
            "astId": 1846,
            "contract": "src/Management/BankNodeManager.sol:BankNodeManager",
            "label": "_values",
            "offset": 0,
            "slot": "0",
            "type": "t_array(t_bytes32)dyn_storage"
          },
          {
            "astId": 1850,
            "contract": "src/Management/BankNodeManager.sol:BankNodeManager",
            "label": "_indexes",
            "offset": 0,
            "slot": "1",
            "type": "t_mapping(t_bytes32,t_uint256)"
          }
        ],
        "numberOfBytes": "64"
      },
      "t_uint16": {
        "encoding": "inplace",
        "label": "uint16",
        "numberOfBytes": "2"
      },
      "t_uint24": {
        "encoding": "inplace",
        "label": "uint24",
        "numberOfBytes": "3"
      },
      "t_uint256": {
        "encoding": "inplace",
        "label": "uint256",
        "numberOfBytes": "32"
      },
      "t_uint32": {
        "encoding": "inplace",
        "label": "uint32",
        "numberOfBytes": "4"
      },
      "t_uint64": {
        "encoding": "inplace",
        "label": "uint64",
        "numberOfBytes": "8"
      },
      "t_uint8": {
        "encoding": "inplace",
        "label": "uint8",
        "numberOfBytes": "1"
      }
    }
  }
}