{
  "address": "0xD093e84Bc6606173101296ca4b01088DeF56935A",
  "abi": [
    {
      "anonymous": false,
      "inputs": [
        {
          "indexed": false,
          "internalType": "address",
          "name": "account",
          "type": "address"
        }
      ],
      "name": "Paused",
      "type": "event"
    },
    {
      "anonymous": false,
      "inputs": [
        {
          "indexed": true,
          "internalType": "uint32",
          "name": "bankNodeId",
          "type": "uint32"
        },
        {
          "indexed": false,
          "internalType": "uint256",
          "name": "reward",
          "type": "uint256"
        }
      ],
      "name": "RewardAdded",
      "type": "event"
    },
    {
      "anonymous": false,
      "inputs": [
        {
          "indexed": true,
          "internalType": "address",
          "name": "user",
          "type": "address"
        },
        {
          "indexed": true,
          "internalType": "uint32",
          "name": "bankNodeId",
          "type": "uint32"
        },
        {
          "indexed": false,
          "internalType": "uint256",
          "name": "reward",
          "type": "uint256"
        }
      ],
      "name": "RewardPaid",
      "type": "event"
    },
    {
      "anonymous": false,
      "inputs": [
        {
          "indexed": true,
          "internalType": "uint32",
          "name": "bankNodeId",
          "type": "uint32"
        },
        {
          "indexed": false,
          "internalType": "uint256",
          "name": "newDuration",
          "type": "uint256"
        }
      ],
      "name": "RewardsDurationUpdated",
      "type": "event"
    },
    {
      "anonymous": false,
      "inputs": [
        {
          "indexed": true,
          "internalType": "bytes32",
          "name": "role",
          "type": "bytes32"
        },
        {
          "indexed": true,
          "internalType": "bytes32",
          "name": "previousAdminRole",
          "type": "bytes32"
        },
        {
          "indexed": true,
          "internalType": "bytes32",
          "name": "newAdminRole",
          "type": "bytes32"
        }
      ],
      "name": "RoleAdminChanged",
      "type": "event"
    },
    {
      "anonymous": false,
      "inputs": [
        {
          "indexed": true,
          "internalType": "bytes32",
          "name": "role",
          "type": "bytes32"
        },
        {
          "indexed": true,
          "internalType": "address",
          "name": "account",
          "type": "address"
        },
        {
          "indexed": true,
          "internalType": "address",
          "name": "sender",
          "type": "address"
        }
      ],
      "name": "RoleGranted",
      "type": "event"
    },
    {
      "anonymous": false,
      "inputs": [
        {
          "indexed": true,
          "internalType": "bytes32",
          "name": "role",
          "type": "bytes32"
        },
        {
          "indexed": true,
          "internalType": "address",
          "name": "account",
          "type": "address"
        },
        {
          "indexed": true,
          "internalType": "address",
          "name": "sender",
          "type": "address"
        }
      ],
      "name": "RoleRevoked",
      "type": "event"
    },
    {
      "anonymous": false,
      "inputs": [
        {
          "indexed": true,
          "internalType": "address",
          "name": "user",
          "type": "address"
        },
        {
          "indexed": true,
          "internalType": "uint32",
          "name": "bankNodeId",
          "type": "uint32"
        },
        {
          "indexed": false,
          "internalType": "uint256",
          "name": "amount",
          "type": "uint256"
        }
      ],
      "name": "Staked",
      "type": "event"
    },
    {
      "anonymous": false,
      "inputs": [
        {
          "indexed": false,
          "internalType": "address",
          "name": "account",
          "type": "address"
        }
      ],
      "name": "Unpaused",
      "type": "event"
    },
    {
      "anonymous": false,
      "inputs": [
        {
          "indexed": true,
          "internalType": "address",
          "name": "user",
          "type": "address"
        },
        {
          "indexed": true,
          "internalType": "uint32",
          "name": "bankNodeId",
          "type": "uint32"
        },
        {
          "indexed": false,
          "internalType": "uint256",
          "name": "amount",
          "type": "uint256"
        }
      ],
      "name": "Withdrawn",
      "type": "event"
    },
    {
      "inputs": [],
      "name": "DEFAULT_ADMIN_ROLE",
      "outputs": [
        {
          "internalType": "bytes32",
          "name": "",
          "type": "bytes32"
        }
      ],
      "stateMutability": "view",
      "type": "function"
    },
    {
      "inputs": [],
      "name": "REWARDS_DISTRIBUTOR_ADMIN_ROLE",
      "outputs": [
        {
          "internalType": "bytes32",
          "name": "",
          "type": "bytes32"
        }
      ],
      "stateMutability": "view",
      "type": "function"
    },
    {
      "inputs": [],
      "name": "REWARDS_DISTRIBUTOR_ROLE",
      "outputs": [
        {
          "internalType": "bytes32",
          "name": "",
          "type": "bytes32"
        }
      ],
      "stateMutability": "view",
      "type": "function"
    },
    {
      "inputs": [],
      "name": "REWARDS_MANAGER",
      "outputs": [
        {
          "internalType": "bytes32",
          "name": "",
          "type": "bytes32"
        }
      ],
      "stateMutability": "view",
      "type": "function"
    },
    {
      "inputs": [],
      "name": "REWARDS_MANAGER_ROLE_ADMIN",
      "outputs": [
        {
          "internalType": "bytes32",
          "name": "",
          "type": "bytes32"
        }
      ],
      "stateMutability": "view",
      "type": "function"
    },
    {
      "inputs": [
        {
          "internalType": "uint32",
          "name": "",
          "type": "uint32"
        }
      ],
      "name": "_totalSupply",
      "outputs": [
        {
          "internalType": "uint256",
          "name": "",
          "type": "uint256"
        }
      ],
      "stateMutability": "view",
      "type": "function"
    },
    {
      "inputs": [
        {
          "internalType": "address",
          "name": "account",
          "type": "address"
        },
        {
          "internalType": "uint32",
          "name": "bankNodeId",
          "type": "uint32"
        }
      ],
      "name": "balanceOf",
      "outputs": [
        {
          "internalType": "uint256",
          "name": "",
          "type": "uint256"
        }
      ],
      "stateMutability": "view",
      "type": "function"
    },
    {
      "inputs": [],
      "name": "bankNodeManager",
      "outputs": [
        {
          "internalType": "contract IBankNodeManager",
          "name": "",
          "type": "address"
        }
      ],
      "stateMutability": "view",
      "type": "function"
    },
    {
      "inputs": [
        {
          "internalType": "uint256",
          "name": "stakingVaultKey",
          "type": "uint256"
        }
      ],
      "name": "decodeUserBankNodeKey",
      "outputs": [
        {
          "internalType": "address",
          "name": "user",
          "type": "address"
        },
        {
          "internalType": "uint32",
          "name": "bankNodeId",
          "type": "uint32"
        }
      ],
      "stateMutability": "pure",
      "type": "function"
    },
    {
      "inputs": [
        {
          "internalType": "uint256",
          "name": "vaultValue",
          "type": "uint256"
        }
      ],
      "name": "decodeVaultValue",
      "outputs": [
        {
          "internalType": "uint256",
          "name": "amount",
          "type": "uint256"
        },
        {
          "internalType": "uint40",
          "name": "depositTime",
          "type": "uint40"
        }
      ],
      "stateMutability": "pure",
      "type": "function"
    },
    {
      "inputs": [],
      "name": "defaultRewardsDuration",
      "outputs": [
        {
          "internalType": "uint256",
          "name": "",
          "type": "uint256"
        }
      ],
      "stateMutability": "view",
      "type": "function"
    },
    {
      "inputs": [
        {
          "internalType": "uint256",
          "name": "amount",
          "type": "uint256"
        }
      ],
      "name": "distributeBNPLTokensToBankNodes",
      "outputs": [
        {
          "internalType": "uint256",
          "name": "",
          "type": "uint256"
        }
      ],
      "stateMutability": "nonpayable",
      "type": "function"
    },
    {
      "inputs": [
        {
          "internalType": "uint256",
          "name": "amount",
          "type": "uint256"
        }
      ],
      "name": "distributeBNPLTokensToBankNodes2",
      "outputs": [
        {
          "internalType": "uint256",
          "name": "",
          "type": "uint256"
        }
      ],
      "stateMutability": "nonpayable",
      "type": "function"
    },
    {
      "inputs": [
        {
          "internalType": "address",
          "name": "account",
          "type": "address"
        },
        {
          "internalType": "uint32",
          "name": "bankNodeId",
          "type": "uint32"
        }
      ],
      "name": "earned",
      "outputs": [
        {
          "internalType": "uint256",
          "name": "",
          "type": "uint256"
        }
      ],
      "stateMutability": "view",
      "type": "function"
    },
    {
      "inputs": [
        {
          "internalType": "address",
          "name": "user",
          "type": "address"
        },
        {
          "internalType": "uint32",
          "name": "bankNodeId",
          "type": "uint32"
        }
      ],
      "name": "encodeUserBankNodeKey",
      "outputs": [
        {
          "internalType": "uint256",
          "name": "",
          "type": "uint256"
        }
      ],
      "stateMutability": "pure",
      "type": "function"
    },
    {
      "inputs": [
        {
          "internalType": "uint256",
          "name": "amount",
          "type": "uint256"
        },
        {
          "internalType": "uint40",
          "name": "depositTime",
          "type": "uint40"
        }
      ],
      "name": "encodeVaultValue",
      "outputs": [
        {
          "internalType": "uint256",
          "name": "",
          "type": "uint256"
        }
      ],
      "stateMutability": "pure",
      "type": "function"
    },
    {
      "inputs": [
        {
          "internalType": "uint32",
          "name": "bankNodeId",
          "type": "uint32"
        }
      ],
      "name": "exit",
      "outputs": [],
      "stateMutability": "nonpayable",
      "type": "function"
    },
    {
      "inputs": [
        {
          "internalType": "uint256",
          "name": "amount",
          "type": "uint256"
        }
      ],
      "name": "getBNPLTokenDistribution",
      "outputs": [
        {
          "internalType": "uint256[]",
          "name": "",
          "type": "uint256[]"
        }
      ],
      "stateMutability": "view",
      "type": "function"
    },
    {
      "inputs": [
        {
          "internalType": "uint32",
          "name": "bankNodeId",
          "type": "uint32"
        }
      ],
      "name": "getReward",
      "outputs": [],
      "stateMutability": "nonpayable",
      "type": "function"
    },
    {
      "inputs": [
        {
          "internalType": "uint32",
          "name": "bankNodeId",
          "type": "uint32"
        }
      ],
      "name": "getRewardForDuration",
      "outputs": [
        {
          "internalType": "uint256",
          "name": "",
          "type": "uint256"
        }
      ],
      "stateMutability": "view",
      "type": "function"
    },
    {
      "inputs": [
        {
          "internalType": "bytes32",
          "name": "role",
          "type": "bytes32"
        }
      ],
      "name": "getRoleAdmin",
      "outputs": [
        {
          "internalType": "bytes32",
          "name": "",
          "type": "bytes32"
        }
      ],
      "stateMutability": "view",
      "type": "function"
    },
    {
      "inputs": [
        {
          "internalType": "bytes32",
          "name": "role",
          "type": "bytes32"
        },
        {
          "internalType": "address",
          "name": "account",
          "type": "address"
        }
      ],
      "name": "grantRole",
      "outputs": [],
      "stateMutability": "nonpayable",
      "type": "function"
    },
    {
      "inputs": [
        {
          "internalType": "bytes32",
          "name": "role",
          "type": "bytes32"
        },
        {
          "internalType": "address",
          "name": "account",
          "type": "address"
        }
      ],
      "name": "hasRole",
      "outputs": [
        {
          "internalType": "bool",
          "name": "",
          "type": "bool"
        }
      ],
      "stateMutability": "view",
      "type": "function"
    },
    {
      "inputs": [
        {
          "internalType": "uint256",
          "name": "_defaultRewardsDuration",
          "type": "uint256"
        },
        {
          "internalType": "address",
          "name": "_rewardsToken",
          "type": "address"
        },
        {
          "internalType": "address",
          "name": "_bankNodeManager",
          "type": "address"
        },
        {
          "internalType": "address",
          "name": "distributorAdmin",
          "type": "address"
        },
        {
          "internalType": "address",
          "name": "managerAdmin",
          "type": "address"
        }
      ],
      "name": "initialize",
      "outputs": [],
      "stateMutability": "nonpayable",
      "type": "function"
    },
    {
      "inputs": [
        {
          "internalType": "uint32",
          "name": "bankNodeId",
          "type": "uint32"
        }
      ],
      "name": "lastTimeRewardApplicable",
      "outputs": [
        {
          "internalType": "uint256",
          "name": "",
          "type": "uint256"
        }
      ],
      "stateMutability": "view",
      "type": "function"
    },
    {
      "inputs": [
        {
          "internalType": "uint32",
          "name": "",
          "type": "uint32"
        }
      ],
      "name": "lastUpdateTime",
      "outputs": [
        {
          "internalType": "uint256",
          "name": "",
          "type": "uint256"
        }
      ],
      "stateMutability": "view",
      "type": "function"
    },
    {
      "inputs": [
        {
          "internalType": "uint32",
          "name": "bankNodeId",
          "type": "uint32"
        },
        {
          "internalType": "uint256",
          "name": "reward",
          "type": "uint256"
        }
      ],
      "name": "notifyRewardAmount",
      "outputs": [],
      "stateMutability": "nonpayable",
      "type": "function"
    },
    {
      "inputs": [],
      "name": "paused",
      "outputs": [
        {
          "internalType": "bool",
          "name": "",
          "type": "bool"
        }
      ],
      "stateMutability": "view",
      "type": "function"
    },
    {
      "inputs": [
        {
          "internalType": "uint32",
          "name": "",
          "type": "uint32"
        }
      ],
      "name": "periodFinish",
      "outputs": [
        {
          "internalType": "uint256",
          "name": "",
          "type": "uint256"
        }
      ],
      "stateMutability": "view",
      "type": "function"
    },
    {
      "inputs": [
        {
          "internalType": "bytes32",
          "name": "role",
          "type": "bytes32"
        },
        {
          "internalType": "address",
          "name": "account",
          "type": "address"
        }
      ],
      "name": "renounceRole",
      "outputs": [],
      "stateMutability": "nonpayable",
      "type": "function"
    },
    {
      "inputs": [
        {
          "internalType": "bytes32",
          "name": "role",
          "type": "bytes32"
        },
        {
          "internalType": "address",
          "name": "account",
          "type": "address"
        }
      ],
      "name": "revokeRole",
      "outputs": [],
      "stateMutability": "nonpayable",
      "type": "function"
    },
    {
      "inputs": [
        {
          "internalType": "uint32",
          "name": "bankNodeId",
          "type": "uint32"
        }
      ],
      "name": "rewardPerToken",
      "outputs": [
        {
          "internalType": "uint256",
          "name": "",
          "type": "uint256"
        }
      ],
      "stateMutability": "view",
      "type": "function"
    },
    {
      "inputs": [
        {
          "internalType": "uint32",
          "name": "",
          "type": "uint32"
        }
      ],
      "name": "rewardPerTokenStored",
      "outputs": [
        {
          "internalType": "uint256",
          "name": "",
          "type": "uint256"
        }
      ],
      "stateMutability": "view",
      "type": "function"
    },
    {
      "inputs": [
        {
          "internalType": "uint32",
          "name": "",
          "type": "uint32"
        }
      ],
      "name": "rewardRate",
      "outputs": [
        {
          "internalType": "uint256",
          "name": "",
          "type": "uint256"
        }
      ],
      "stateMutability": "view",
      "type": "function"
    },
    {
      "inputs": [
        {
          "internalType": "uint256",
          "name": "",
          "type": "uint256"
        }
      ],
      "name": "rewards",
      "outputs": [
        {
          "internalType": "uint256",
          "name": "",
          "type": "uint256"
        }
      ],
      "stateMutability": "view",
      "type": "function"
    },
    {
      "inputs": [
        {
          "internalType": "uint32",
          "name": "",
          "type": "uint32"
        }
      ],
      "name": "rewardsDuration",
      "outputs": [
        {
          "internalType": "uint256",
          "name": "",
          "type": "uint256"
        }
      ],
      "stateMutability": "view",
      "type": "function"
    },
    {
      "inputs": [],
      "name": "rewardsToken",
      "outputs": [
        {
          "internalType": "contract IERC20",
          "name": "",
          "type": "address"
        }
      ],
      "stateMutability": "view",
      "type": "function"
    },
    {
      "inputs": [
        {
          "internalType": "uint32",
          "name": "bankNodeId",
          "type": "uint32"
        },
        {
          "internalType": "uint256",
          "name": "_rewardsDuration",
          "type": "uint256"
        }
      ],
      "name": "setRewardsDuration",
      "outputs": [],
      "stateMutability": "nonpayable",
      "type": "function"
    },
    {
      "inputs": [
        {
          "internalType": "uint32",
          "name": "bankNodeId",
          "type": "uint32"
        },
        {
          "internalType": "uint256",
          "name": "tokenAmount",
          "type": "uint256"
        }
      ],
      "name": "stake",
      "outputs": [],
      "stateMutability": "nonpayable",
      "type": "function"
    },
    {
      "inputs": [
        {
          "internalType": "bytes4",
          "name": "interfaceId",
          "type": "bytes4"
        }
      ],
      "name": "supportsInterface",
      "outputs": [
        {
          "internalType": "bool",
          "name": "",
          "type": "bool"
        }
      ],
      "stateMutability": "view",
      "type": "function"
    },
    {
      "inputs": [
        {
          "internalType": "uint32",
          "name": "bankNodeId",
          "type": "uint32"
        }
      ],
      "name": "totalSupply",
      "outputs": [
        {
          "internalType": "uint256",
          "name": "",
          "type": "uint256"
        }
      ],
      "stateMutability": "view",
      "type": "function"
    },
    {
      "inputs": [
        {
          "internalType": "uint256",
          "name": "",
          "type": "uint256"
        }
      ],
      "name": "userRewardPerTokenPaid",
      "outputs": [
        {
          "internalType": "uint256",
          "name": "",
          "type": "uint256"
        }
      ],
      "stateMutability": "view",
      "type": "function"
    },
    {
      "inputs": [
        {
          "internalType": "uint32",
          "name": "bankNodeId",
          "type": "uint32"
        },
        {
          "internalType": "uint256",
          "name": "tokenAmount",
          "type": "uint256"
        }
      ],
      "name": "withdraw",
      "outputs": [],
      "stateMutability": "nonpayable",
      "type": "function"
    }
  ],
  "transactionHash": "0x5f5035d5b0bf3272bcee2043b90e6f1b4dd0773d4b6ade8b1b66d25665314659",
  "args": [],
  "solcInputHash": "1ea8a523a0ea379748ee8243d1ba5420",
  "bytecode": "0x608060405234801561001057600080fd5b50612e5a806100206000396000f3fe608060405234801561001057600080fd5b50600436106102695760003560e01c806387b17fba11610151578063c34c2289116100c3578063ddc425a111610087578063ddc425a11461063f578063e1a2756314610652578063e619fcb314610667578063eff625ba1461067a578063f301af421461069a578063f50d58ab146106bb57600080fd5b8063c34c2289146105cf578063c7fb652a146105e4578063d1af0c7d14610605578063d547741f14610619578063dab47e021461062c57600080fd5b8063a217fddf11610115578063a217fddf1461053c578063a3b1a97514610544578063ad0008521461054e578063ad94db1114610575578063b138aafa14610588578063b8eb9d42146105a857600080fd5b806387b17fba146104d057806391d14854146104e357806397667707146104f65780639aed3f6c146105095780639fa8cc5c1461052957600080fd5b806342a95e44116101ea5780635be035a9116101ae5780635be035a9146104285780635c975abb1461043b5780636227fbd8146104465780636c6f858b146104895780637288d381146104aa5780637ec6840f146104bd57600080fd5b806342a95e4414610396578063484ba323146103b65780634d49c4ca146103d657806351060376146103e957806356b591531461041557600080fd5b80632f0c2c7c116102315780632f0c2c7c1461032a5780632f2ff15d1461033d5780633641e0831461035057806336568abe1461036357806338ed1eb51461037657600080fd5b806301ffc9a71461026e5780630e19dc3a146102965780631739aa5c146102ab578063248a9ca3146102be578063275babf2146102ef575b600080fd5b61028161027c366004612a0a565b6106ce565b60405190151581526020015b60405180910390f35b6102a96102a4366004612b16565b610705565b005b6102a96102b9366004612b16565b61099a565b6102e16102cc3660046129ce565b600090815260c9602052604090206001015490565b60405190815260200161028d565b61030f6102fd3660046129ce565b602881901c9164ffffffffff90911690565b6040805192835264ffffffffff90911660208301520161028d565b6102a9610338366004612ade565b6109c2565b6102a961034b3660046129e6565b610b67565b6102a961035e366004612a4a565b610b8d565b6102a96103713660046129e6565b610c0b565b6103896103843660046129ce565b610c89565b60405161028d9190612bd2565b6102e16103a4366004612ade565b60ff6020526000908152604090205481565b6102e16103c4366004612ade565b60fe6020526000908152604090205481565b6102e16103e4366004612ade565b610fa9565b610104546103fd906001600160a01b031681565b6040516001600160a01b03909116815260200161028d565b6102e1610423366004612976565b610fe7565b6102e1610436366004612976565b611004565b60655460ff16610281565b6104656104543660046129ce565b602081901c9163ffffffff90911690565b604080516001600160a01b03909316835263ffffffff90911660208301520161028d565b6102e16104973660046129ce565b6101006020526000908152604090205481565b6102e16104b8366004612ade565b611031565b6102a96104cb366004612b16565b61104d565b6102e16104de3660046129ce565b61130c565b6102816104f13660046129e6565b611603565b6102e1610504366004612ade565b61162e565b6102e1610517366004612ade565b60fd6020526000908152604090205481565b6102e16105373660046129ce565b611659565b6102e1600081565b6102e16101065481565b6102e17fda92b1eb88e323014c2393f850bdd75a41abd908a97d07608c7fe352b9cc698781565b6102a9610583366004612b16565b6118db565b6102e1610596366004612ade565b60fc6020526000908152604090205481565b6102e17f4e7ad56edcdc362e9a91c1c84cf27f5bf37aa240e4a8d64969d57bf83e20182281565b6102e1600080516020612de583398151915281565b6102e16105f2366004612ade565b6101026020526000908152604090205481565b610105546103fd906001600160a01b031681565b6102a96106273660046129e6565b6119fb565b6102e161063a366004612976565b611a21565b6102e161064d366004612ade565b611aa2565b6102e1600080516020612e0583398151915281565b6102e1610675366004612ab1565b611b59565b6102e1610688366004612ade565b60fb6020526000908152604090205481565b6102e16106a83660046129ce565b6101016020526000908152604090205481565b6102a96106c9366004612ade565b611bd5565b60006001600160e01b03198216637965db0b60e01b14806106ff57506301ffc9a760e01b6001600160e01b03198316145b92915050565b600260015414156107315760405162461bcd60e51b815260040161072890612c97565b60405180910390fd5b600260015563ffffffff8216600090815260fd60205260409020543390839061076f576101065463ffffffff8216600090815260fd60205260409020555b61077881611aa2565b63ffffffff8216600090815260ff602052604090205561079781610fa9565b63ffffffff8216600090815260fe60205260409020556001600160a01b038216156108065760006107c83383610fe7565b90506107d43383611a21565b6000828152610101602090815260408083209390935563ffffffff8516825260ff815282822054938252610100905220555b6000831161084a5760405162461bcd60e51b8152602060048201526011602482015270043616e6e6f74207769746864726177203607c1b6044820152606401610728565b828061088c5760405162461bcd60e51b8152602060048201526011602482015270043616e6e6f74207769746864726177203607c1b6044820152606401610728565b8381146108d45760405162461bcd60e51b8152602060048201526016602482015275746f6b656e20616d6f756e7420746f6f20686967682160501b6044820152606401610728565b63ffffffff851660009081526101026020526040812080548392906108fa908490612d4d565b9091555081905061010360006109103389610fe7565b8152602001908152602001600020600082825461092d9190612d4d565b909155506109519050338561094188611bf7565b6001600160a01b03169190611c35565b60405184815263ffffffff86169033907f25f764a8eeb22885d1bfb45181fbf0991201966ccbf30bc7fcef7f45ab9a5d9f906020015b60405180910390a3505060018055505050565b600080516020612de58339815191526109b38133611c98565b6109bd8383611cfc565b505050565b600260015414156109e55760405162461bcd60e51b815260040161072890612c97565b600260015563ffffffff8116600090815260fd602052604090205433908290610a23576101065463ffffffff8216600090815260fd60205260409020555b610a2c81611aa2565b63ffffffff8216600090815260ff6020526040902055610a4b81610fa9565b63ffffffff8216600090815260fe60205260409020556001600160a01b03821615610aba576000610a7c3383610fe7565b9050610a883383611a21565b6000828152610101602090815260408083209390935563ffffffff8516825260ff815282822054938252610100905220555b60006101016000610acb3387610fe7565b81526020019081526020016000205490506000811115610b5d5760006101016000610af63388610fe7565b815260208101919091526040016000205561010554610b1f906001600160a01b03163383611c35565b60405181815263ffffffff85169033907f87c5e01a5860f4876d13985efbb6a6590d65635cc4eeefe9e04df5d601826ed79060200160405180910390a35b5050600180555050565b600082815260c96020526040902060010154610b838133611c98565b6109bd838361207c565b600054610100900460ff1680610ba6575060005460ff16155b610bc25760405162461bcd60e51b815260040161072890612c49565b600054610100900460ff16158015610be4576000805461ffff19166101011790555b610bf18686868686612102565b8015610c03576000805461ff00191690555b505050505050565b6001600160a01b0381163314610c7b5760405162461bcd60e51b815260206004820152602f60248201527f416363657373436f6e74726f6c3a2063616e206f6e6c792072656e6f756e636560448201526e103937b632b9903337b91039b2b63360891b6064820152608401610728565b610c8582826122dd565b5050565b6060600061010460009054906101000a90046001600160a01b03166001600160a01b031663c9a3f1806040518163ffffffff1660e01b815260040160206040518083038186803b158015610cdc57600080fd5b505afa158015610cf0573d6000803e3d6000fd5b505050506040513d601f19601f82011682018060405250810190610d149190612afa565b905060008163ffffffff1667ffffffffffffffff811115610d4557634e487b7160e01b600052604160045260246000fd5b604051908082528060200260200182016040528015610d6e578160200160208202803683370190505b50905060008060005b8463ffffffff168363ffffffff161015610efe5761010554610104546001600160a01b03918216916370a0823191610e35911663ee7bd985610dba886001612ce6565b6040516001600160e01b031960e084901b16815263ffffffff9190911660048201526024015b60206040518083038186803b158015610df857600080fd5b505afa158015610e0c573d6000803e3d6000fd5b505050506040513d601f19601f82011682018060405250810190610e30919061295a565b612344565b6040516001600160e01b031960e084901b1681526001600160a01b03909116600482015260240160206040518083038186803b158015610e7457600080fd5b505afa158015610e88573d6000803e3d6000fd5b505050506040513d601f19601f82011682018060405250810190610eac9190612a32565b915081848463ffffffff1681518110610ed557634e487b7160e01b600052603260045260246000fd5b6020908102919091010152610eea8282612cce565b9050610ef7600184612ce6565b9250610d77565b600092505b8463ffffffff168363ffffffff161015610f9e578087858563ffffffff1681518110610f3f57634e487b7160e01b600052603260045260246000fd5b6020026020010151610f519190612d2e565b610f5b9190612d0e565b848463ffffffff1681518110610f8157634e487b7160e01b600052603260045260246000fd5b6020908102919091010152610f97600184612ce6565b9250610f03565b509195945050505050565b63ffffffff8116600090815260fb60205260408120544210610fe05763ffffffff8216600090815260fb60205260409020546106ff565b4292915050565b63ffffffff1660209190911b640100000000600160c01b03161790565b600061102a61010360006110188686610fe7565b81526020019081526020016000205490565b9392505050565b63ffffffff8116600090815261010260205260408120546106ff565b600260015414156110705760405162461bcd60e51b815260040161072890612c97565b600260015560655460ff16156110bb5760405162461bcd60e51b815260206004820152601060248201526f14185d5cd8589b194e881c185d5cd95960821b6044820152606401610728565b63ffffffff8216600090815260fd6020526040902054339083906110f4576101065463ffffffff8216600090815260fd60205260409020555b6110fd81611aa2565b63ffffffff8216600090815260ff602052604090205561111c81610fa9565b63ffffffff8216600090815260fe60205260409020556001600160a01b0382161561118b57600061114d3383610fe7565b90506111593383611a21565b6000828152610101602090815260408083209390935563ffffffff8516825260ff815282822054938252610100905220555b600083116111cc5760405162461bcd60e51b815260206004820152600e60248201526d043616e6e6f74207374616b6520360941b6044820152606401610728565b828061120b5760405162461bcd60e51b815260206004820152600e60248201526d043616e6e6f74207374616b6520360941b6044820152606401610728565b8381146112535760405162461bcd60e51b8152602060048201526016602482015275746f6b656e20616d6f756e7420746f6f20686967682160501b6044820152606401610728565b63ffffffff85166000908152610102602052604081208054839290611279908490612cce565b90915550819050610103600061128f3389610fe7565b815260200190815260200160002060008282546112ac9190612cce565b909155506112d290503330866112c189611bf7565b6001600160a01b0316929190612399565b60405184815263ffffffff86169033907f93cf2c3aa68dd993d5cfc967e7ade7eab0683f4172c64bd661b584621d81b8d990602001610987565b6000600080516020612de58339815191526113278133611c98565b600083116113675760405162461bcd60e51b815260206004820152600d60248201526c063616e6e6f742073656e64203609c1b6044820152606401610728565b61010554611380906001600160a01b0316333086612399565b610104546040805163019347e360e71b815290516000926001600160a01b03169163c9a3f180916004808301926020929190829003018186803b1580156113c657600080fd5b505afa1580156113da573d6000803e3d6000fd5b505050506040513d601f19601f820116820180604052508101906113fe9190612afa565b905060008163ffffffff1667ffffffffffffffff81111561142f57634e487b7160e01b600052604160045260246000fd5b604051908082528060200260200182016040528015611458578160200160208202803683370190505b50905060008060005b8463ffffffff168363ffffffff16101561156d5761010554610104546001600160a01b03918216916370a08231916114a4911663ee7bd985610dba886001612ce6565b6040516001600160e01b031960e084901b1681526001600160a01b03909116600482015260240160206040518083038186803b1580156114e357600080fd5b505afa1580156114f7573d6000803e3d6000fd5b505050506040513d601f19601f8201168201806040525081019061151b9190612a32565b915081848463ffffffff168151811061154457634e487b7160e01b600052603260045260246000fd5b60209081029190910101526115598282612cce565b9050611566600184612ce6565b9250611461565b600092505b8463ffffffff168363ffffffff1610156115f8578088858563ffffffff16815181106115ae57634e487b7160e01b600052603260045260246000fd5b60200260200101516115c09190612d2e565b6115ca9190612d0e565b915081156115e6576115e66115e0846001612ce6565b83611cfc565b6115f1600184612ce6565b9250611572565b979650505050505050565b600091825260c9602090815260408084206001600160a01b0393909316845291905290205460ff1690565b63ffffffff8116600090815260fd602090815260408083205460fc9092528220546106ff9190612d2e565b6000600080516020612de58339815191526116748133611c98565b610104546040805163019347e360e71b815290516000926001600160a01b03169163c9a3f180916004808301926020929190829003018186803b1580156116ba57600080fd5b505afa1580156116ce573d6000803e3d6000fd5b505050506040513d601f19601f820116820180604052508101906116f29190612afa565b905060008060005b8363ffffffff168363ffffffff1610156117d25761010554610104546001600160a01b03918216916370a082319161173d911663ee7bd985610dba886001612ce6565b6040516001600160e01b031960e084901b1681526001600160a01b03909116600482015260240160206040518083038186803b15801561177c57600080fd5b505afa158015611790573d6000803e3d6000fd5b505050506040513d601f19601f820116820180604052508101906117b49190612a32565b6117be9082612cce565b90506117cb600184612ce6565b92506116fa565b600092505b8363ffffffff168363ffffffff1610156118d1576101055461010454829189916001600160a01b03918216916370a082319161181e911663ee7bd985610dba8a6001612ce6565b6040516001600160e01b031960e084901b1681526001600160a01b03909116600482015260240160206040518083038186803b15801561185d57600080fd5b505afa158015611871573d6000803e3d6000fd5b505050506040513d601f19601f820116820180604052508101906118959190612a32565b61189f9190612d2e565b6118a99190612d0e565b915081156118bf576118bf6115e0846001612ce6565b6118ca600184612ce6565b92506117d7565b9695505050505050565b600080516020612e058339815191526118f48133611c98565b63ffffffff8316600090815260fb602052604090205442116119a45760405162461bcd60e51b815260206004820152605860248201527f50726576696f7573207265776172647320706572696f64206d7573742062652060448201527f636f6d706c657465206265666f7265206368616e67696e67207468652064757260648201527f6174696f6e20666f7220746865206e657720706572696f640000000000000000608482015260a401610728565b63ffffffff8316600081815260fd602052604090819020849055517f1a366ac3815b1aa3c5c4e1b93d1a7e3fddf0e735d81722e5800f812186b68d8a906119ee9085815260200190565b60405180910390a2505050565b600082815260c96020526040902060010154611a178133611c98565b6109bd83836122dd565b600080611a2e8484610fe7565b600081815261010160209081526040808320546101009092529091205491925090670de0b6b3a764000090611a6286611aa2565b611a6c9190612d4d565b60008481526101036020526040902054611a869190612d2e565b611a909190612d0e565b611a9a9190612cce565b949350505050565b63ffffffff811660009081526101026020526040812054611ad6575063ffffffff16600090815260ff602052604090205490565b63ffffffff82166000908152610102602090815260408083205460fc83528184205460fe9093529220546106ff92611b3a929091611b3491670de0b6b3a764000091611b2e91908290611b288b610fa9565b906123d7565b906123e3565b906123ef565b63ffffffff808516600090815260ff602052604090205491906123fb16565b60006001600160d81b03831115611bc35760405162461bcd60e51b815260206004820152602860248201527f63616e6e6f7420656e636f646520616d6f756e74206c6172676572207468616e60448201526720325e3231362d3160c01b6064820152608401610728565b5064ffffffffff1660289190911b1790565b611beb816102a461010360006110183387610fe7565b611bf4816109c2565b50565b6101045460405163cbe9889360e01b815263ffffffff831660048201526000916106ff916001600160a01b039091169063cbe9889390602401610de0565b6040516001600160a01b0383166024820152604481018290526109bd90849063a9059cbb60e01b906064015b60408051601f198184030181529190526020810180516001600160e01b03166001600160e01b031990931692909217909152612407565b611ca28282611603565b610c8557611cba816001600160a01b031660146124d9565b611cc58360206124d9565b604051602001611cd6929190612b5d565b60408051601f198184030181529082905262461bcd60e51b825261072891600401612c16565b63ffffffff8216600090815260fd60205260408120548390611d33576101065463ffffffff8216600090815260fd60205260409020555b611d3c81611aa2565b63ffffffff8216600090815260ff6020526040902055611d5b81610fa9565b63ffffffff8216600090815260fe60205260409020556001600160a01b03821615611dca576000611d8c3383610fe7565b9050611d983383611a21565b6000828152610101602090815260408083209390935563ffffffff8516825260ff815282822054938252610100905220555b63ffffffff8416600090815260fd6020526040902054611dff576101065463ffffffff8516600090815260fd60205260409020555b63ffffffff8416600090815260fb60205260409020544210611e565763ffffffff8416600090815260fd6020526040902054611e3b9084612d0e565b63ffffffff8516600090815260fc6020526040902055611ee1565b63ffffffff8416600090815260fb6020526040812054611e77904290612d4d565b63ffffffff8616600090815260fc602052604081205491925090611e9b9083612d2e565b63ffffffff8716600090815260fd6020526040902054909150611ebe8287612cce565b611ec89190612d0e565b63ffffffff8716600090815260fc602052604090205550505b6000611f6b611eef86611bf7565b6040516370a0823160e01b81523060048201526001600160a01b0391909116906370a082319060240160206040518083038186803b158015611f3057600080fd5b505afa158015611f44573d6000803e3d6000fd5b505050506040513d601f19601f82011682018060405250810190611f689190612a32565b90565b63ffffffff8616600090815260fd6020526040902054909150611f8e9082612d0e565b63ffffffff8616600090815260fc60205260409020541115611ff25760405162461bcd60e51b815260206004820152601860248201527f50726f76696465642072657761726420746f6f206869676800000000000000006044820152606401610728565b63ffffffff8516600090815260fe60209081526040808320429081905560fd9092529091205461202191612cce565b63ffffffff8616600081815260fb6020526040908190209290925590517f9908b652c154a942ecd891ffbad775908f7b267070e26f5813dc1bb0a5923ab19061206d9087815260200190565b60405180910390a25050505050565b6120868282611603565b610c8557600082815260c9602090815260408083206001600160a01b03851684529091529020805460ff191660011790556120be3390565b6001600160a01b0316816001600160a01b0316837f2f8788117e7eff1d82e926ec794901d17c78024a50270940304540a733656f0d60405160405180910390a45050565b600054610100900460ff168061211b575060005460ff16155b6121375760405162461bcd60e51b815260040161072890612c49565b600054610100900460ff16158015612159576000805461ffff19166101011790555b6121616126bb565b61216961272a565b612171612795565b61217961272a565b61218161272a565b61010580546001600160a01b038088166001600160a01b0319928316179092556101048054928716929091169190911790556101068690556121d1600080516020612de58339815191528561280a565b6121e9600080516020612de58339815191528461280a565b6122137f4e7ad56edcdc362e9a91c1c84cf27f5bf37aa240e4a8d64969d57bf83e2018228461280a565b61224b600080516020612de58339815191527f4e7ad56edcdc362e9a91c1c84cf27f5bf37aa240e4a8d64969d57bf83e201822612814565b612263600080516020612e058339815191528561280a565b61227b600080516020612e058339815191528361280a565b6122a57fda92b1eb88e323014c2393f850bdd75a41abd908a97d07608c7fe352b9cc69878361280a565b610bf1600080516020612e058339815191527fda92b1eb88e323014c2393f850bdd75a41abd908a97d07608c7fe352b9cc6987612814565b6122e78282611603565b15610c8557600082815260c9602090815260408083206001600160a01b0385168085529252808320805460ff1916905551339285917ff6391f5c32d9c69d2a47ea670b442974b53935d1edc7fd64eb21e047a839171b9190a45050565b60006001600160a01b0382166123955760405162461bcd60e51b8152602060048201526016602482015275696e76616c696420746f6b656e20616464726573732160501b6044820152606401610728565b5090565b6040516001600160a01b03808516602483015283166044820152606481018290526123d19085906323b872dd60e01b90608401611c61565b50505050565b600061102a8284612d4d565b600061102a8284612d2e565b600061102a8284612d0e565b600061102a8284612cce565b600061245c826040518060400160405280602081526020017f5361666545524332303a206c6f772d6c6576656c2063616c6c206661696c6564815250856001600160a01b031661285f9092919063ffffffff16565b8051909150156109bd578080602001905181019061247a91906129ae565b6109bd5760405162461bcd60e51b815260206004820152602a60248201527f5361666545524332303a204552433230206f7065726174696f6e20646964206e6044820152691bdd081cdd58d8d9595960b21b6064820152608401610728565b606060006124e8836002612d2e565b6124f3906002612cce565b67ffffffffffffffff81111561251957634e487b7160e01b600052604160045260246000fd5b6040519080825280601f01601f191660200182016040528015612543576020820181803683370190505b509050600360fc1b8160008151811061256c57634e487b7160e01b600052603260045260246000fd5b60200101906001600160f81b031916908160001a905350600f60fb1b816001815181106125a957634e487b7160e01b600052603260045260246000fd5b60200101906001600160f81b031916908160001a90535060006125cd846002612d2e565b6125d8906001612cce565b90505b600181111561266c576f181899199a1a9b1b9c1cb0b131b232b360811b85600f166010811061261a57634e487b7160e01b600052603260045260246000fd5b1a60f81b82828151811061263e57634e487b7160e01b600052603260045260246000fd5b60200101906001600160f81b031916908160001a90535060049490941c9361266581612d90565b90506125db565b50831561102a5760405162461bcd60e51b815260206004820181905260248201527f537472696e67733a20686578206c656e67746820696e73756666696369656e746044820152606401610728565b600054610100900460ff16806126d4575060005460ff16155b6126f05760405162461bcd60e51b815260040161072890612c49565b600054610100900460ff16158015612712576000805461ffff19166101011790555b600180558015611bf4576000805461ff001916905550565b600054610100900460ff1680612743575060005460ff16155b61275f5760405162461bcd60e51b815260040161072890612c49565b600054610100900460ff16158015612781576000805461ffff19166101011790555b8015611bf4576000805461ff001916905550565b600054610100900460ff16806127ae575060005460ff16155b6127ca5760405162461bcd60e51b815260040161072890612c49565b600054610100900460ff161580156127ec576000805461ffff19166101011790555b6065805460ff191690558015611bf4576000805461ff001916905550565b610c85828261207c565b600082815260c96020526040808220600101805490849055905190918391839186917fbd79b86ffe0ab8e8776151514217cd7cacd52c909f66475c3af44e129f0b00ff9190a4505050565b6060611a9a848460008585843b6128b85760405162461bcd60e51b815260206004820152601d60248201527f416464726573733a2063616c6c20746f206e6f6e2d636f6e74726163740000006044820152606401610728565b600080866001600160a01b031685876040516128d49190612b41565b60006040518083038185875af1925050503d8060008114612911576040519150601f19603f3d011682016040523d82523d6000602084013e612916565b606091505b50915091506115f88282866060831561293057508161102a565b8251156129405782518084602001fd5b8160405162461bcd60e51b81526004016107289190612c16565b60006020828403121561296b578081fd5b815161102a81612dbd565b60008060408385031215612988578081fd5b823561299381612dbd565b915060208301356129a381612dd2565b809150509250929050565b6000602082840312156129bf578081fd5b8151801515811461102a578182fd5b6000602082840312156129df578081fd5b5035919050565b600080604083850312156129f8578182fd5b8235915060208301356129a381612dbd565b600060208284031215612a1b578081fd5b81356001600160e01b03198116811461102a578182fd5b600060208284031215612a43578081fd5b5051919050565b600080600080600060a08688031215612a61578081fd5b853594506020860135612a7381612dbd565b93506040860135612a8381612dbd565b92506060860135612a9381612dbd565b91506080860135612aa381612dbd565b809150509295509295909350565b60008060408385031215612ac3578182fd5b82359150602083013564ffffffffff811681146129a3578182fd5b600060208284031215612aef578081fd5b813561102a81612dd2565b600060208284031215612b0b578081fd5b815161102a81612dd2565b60008060408385031215612b28578182fd5b8235612b3381612dd2565b946020939093013593505050565b60008251612b53818460208701612d64565b9190910192915050565b7f416363657373436f6e74726f6c3a206163636f756e7420000000000000000000815260008351612b95816017850160208801612d64565b7001034b99036b4b9b9b4b733903937b6329607d1b6017918401918201528351612bc6816028840160208801612d64565b01602801949350505050565b6020808252825182820181905260009190848201906040850190845b81811015612c0a57835183529284019291840191600101612bee565b50909695505050505050565b6020815260008251806020840152612c35816040850160208701612d64565b601f01601f19169190910160400192915050565b6020808252602e908201527f496e697469616c697a61626c653a20636f6e747261637420697320616c72656160408201526d191e481a5b9a5d1a585b1a5e995960921b606082015260800190565b6020808252601f908201527f5265656e7472616e637947756172643a207265656e7472616e742063616c6c00604082015260600190565b60008219821115612ce157612ce1612da7565b500190565b600063ffffffff808316818516808303821115612d0557612d05612da7565b01949350505050565b600082612d2957634e487b7160e01b81526012600452602481fd5b500490565b6000816000190483118215151615612d4857612d48612da7565b500290565b600082821015612d5f57612d5f612da7565b500390565b60005b83811015612d7f578181015183820152602001612d67565b838111156123d15750506000910152565b600081612d9f57612d9f612da7565b506000190190565b634e487b7160e01b600052601160045260246000fd5b6001600160a01b0381168114611bf457600080fd5b63ffffffff81168114611bf457600080fdfe9df62d436bfc9f3be4953ab398f3aa862316b013d490e2138c80b4b2eadeabd751785d261c3b3e8c2cfe2d0e108b9ab2b1fb703ff9e9e49aba4ebdc85c36152ba26469706673582212208050d88a55a8f1c6f59a880e85306a75ba31b1ef573b10df6444b960d14d71e064736f6c63430008040033",
  "devdoc": {
    "kind": "dev",
    "methods": {
      "getRoleAdmin(bytes32)": {
        "details": "Returns the admin role that controls `role`. See {grantRole} and {revokeRole}. To change a role's admin, use {_setRoleAdmin}."
      },
      "grantRole(bytes32,address)": {
        "details": "Grants `role` to `account`. If `account` had not been already granted `role`, emits a {RoleGranted} event. Requirements: - the caller must have ``role``'s admin role."
      },
      "hasRole(bytes32,address)": {
        "details": "Returns `true` if `account` has been granted `role`."
      },
      "paused()": {
        "details": "Returns true if the contract is paused, and false otherwise."
      },
      "renounceRole(bytes32,address)": {
        "details": "Revokes `role` from the calling account. Roles are often managed via {grantRole} and {revokeRole}: this function's purpose is to provide a mechanism for accounts to lose their privileges if they are compromised (such as when a trusted device is misplaced). If the calling account had been granted `role`, emits a {RoleRevoked} event. Requirements: - the caller must be `account`."
      },
      "revokeRole(bytes32,address)": {
        "details": "Revokes `role` from `account`. If `account` had been granted `role`, emits a {RoleRevoked} event. Requirements: - the caller must have ``role``'s admin role."
      },
      "supportsInterface(bytes4)": {
        "details": "See {IERC165-supportsInterface}."
      }
    },
    "version": 1
  },
  "userdoc": {
    "kind": "user",
    "methods": {},
    "version": 1
  },
  "storageLayout": {
    "storage": [
      {
        "astId": 648,
        "contract": "src/Rewards/PlatformRewards/BankNodeLendingRewards.sol:BankNodeLendingRewards",
        "label": "_initialized",
        "offset": 0,
        "slot": "0",
        "type": "t_bool"
      },
      {
        "astId": 651,
        "contract": "src/Rewards/PlatformRewards/BankNodeLendingRewards.sol:BankNodeLendingRewards",
        "label": "_initializing",
        "offset": 1,
        "slot": "0",
        "type": "t_bool"
      },
      {
        "astId": 815,
        "contract": "src/Rewards/PlatformRewards/BankNodeLendingRewards.sol:BankNodeLendingRewards",
        "label": "_status",
        "offset": 0,
        "slot": "1",
        "type": "t_uint256"
      },
      {
        "astId": 858,
        "contract": "src/Rewards/PlatformRewards/BankNodeLendingRewards.sol:BankNodeLendingRewards",
        "label": "__gap",
        "offset": 0,
        "slot": "2",
        "type": "t_array(t_uint256)49_storage"
      },
      {
        "astId": 1578,
        "contract": "src/Rewards/PlatformRewards/BankNodeLendingRewards.sol:BankNodeLendingRewards",
        "label": "__gap",
        "offset": 0,
        "slot": "51",
        "type": "t_array(t_uint256)50_storage"
      },
      {
        "astId": 709,
        "contract": "src/Rewards/PlatformRewards/BankNodeLendingRewards.sol:BankNodeLendingRewards",
        "label": "_paused",
        "offset": 0,
        "slot": "101",
        "type": "t_bool"
      },
      {
        "astId": 800,
        "contract": "src/Rewards/PlatformRewards/BankNodeLendingRewards.sol:BankNodeLendingRewards",
        "label": "__gap",
        "offset": 0,
        "slot": "102",
        "type": "t_array(t_uint256)49_storage"
      },
      {
        "astId": 1827,
        "contract": "src/Rewards/PlatformRewards/BankNodeLendingRewards.sol:BankNodeLendingRewards",
        "label": "__gap",
        "offset": 0,
        "slot": "151",
        "type": "t_array(t_uint256)50_storage"
      },
      {
        "astId": 258,
        "contract": "src/Rewards/PlatformRewards/BankNodeLendingRewards.sol:BankNodeLendingRewards",
        "label": "_roles",
        "offset": 0,
        "slot": "201",
        "type": "t_mapping(t_bytes32,t_struct(RoleData)253_storage)"
      },
      {
        "astId": 543,
        "contract": "src/Rewards/PlatformRewards/BankNodeLendingRewards.sol:BankNodeLendingRewards",
        "label": "__gap",
        "offset": 0,
        "slot": "202",
        "type": "t_array(t_uint256)49_storage"
      },
      {
        "astId": 21646,
        "contract": "src/Rewards/PlatformRewards/BankNodeLendingRewards.sol:BankNodeLendingRewards",
        "label": "periodFinish",
        "offset": 0,
        "slot": "251",
        "type": "t_mapping(t_uint32,t_uint256)"
      },
      {
        "astId": 21650,
        "contract": "src/Rewards/PlatformRewards/BankNodeLendingRewards.sol:BankNodeLendingRewards",
        "label": "rewardRate",
        "offset": 0,
        "slot": "252",
        "type": "t_mapping(t_uint32,t_uint256)"
      },
      {
        "astId": 21654,
        "contract": "src/Rewards/PlatformRewards/BankNodeLendingRewards.sol:BankNodeLendingRewards",
        "label": "rewardsDuration",
        "offset": 0,
        "slot": "253",
        "type": "t_mapping(t_uint32,t_uint256)"
      },
      {
        "astId": 21658,
        "contract": "src/Rewards/PlatformRewards/BankNodeLendingRewards.sol:BankNodeLendingRewards",
        "label": "lastUpdateTime",
        "offset": 0,
        "slot": "254",
        "type": "t_mapping(t_uint32,t_uint256)"
      },
      {
        "astId": 21662,
        "contract": "src/Rewards/PlatformRewards/BankNodeLendingRewards.sol:BankNodeLendingRewards",
        "label": "rewardPerTokenStored",
        "offset": 0,
        "slot": "255",
        "type": "t_mapping(t_uint32,t_uint256)"
      },
      {
        "astId": 21666,
        "contract": "src/Rewards/PlatformRewards/BankNodeLendingRewards.sol:BankNodeLendingRewards",
        "label": "userRewardPerTokenPaid",
        "offset": 0,
        "slot": "256",
        "type": "t_mapping(t_uint256,t_uint256)"
      },
      {
        "astId": 21670,
        "contract": "src/Rewards/PlatformRewards/BankNodeLendingRewards.sol:BankNodeLendingRewards",
        "label": "rewards",
        "offset": 0,
        "slot": "257",
        "type": "t_mapping(t_uint256,t_uint256)"
      },
      {
        "astId": 21674,
        "contract": "src/Rewards/PlatformRewards/BankNodeLendingRewards.sol:BankNodeLendingRewards",
        "label": "_totalSupply",
        "offset": 0,
        "slot": "258",
        "type": "t_mapping(t_uint32,t_uint256)"
      },
      {
        "astId": 21678,
        "contract": "src/Rewards/PlatformRewards/BankNodeLendingRewards.sol:BankNodeLendingRewards",
        "label": "_balances",
        "offset": 0,
        "slot": "259",
        "type": "t_mapping(t_uint256,t_uint256)"
      },
      {
        "astId": 21681,
        "contract": "src/Rewards/PlatformRewards/BankNodeLendingRewards.sol:BankNodeLendingRewards",
        "label": "bankNodeManager",
        "offset": 0,
        "slot": "260",
        "type": "t_contract(IBankNodeManager)20882"
      },
      {
        "astId": 21684,
        "contract": "src/Rewards/PlatformRewards/BankNodeLendingRewards.sol:BankNodeLendingRewards",
        "label": "rewardsToken",
        "offset": 0,
        "slot": "261",
        "type": "t_contract(IERC20)4115"
      },
      {
        "astId": 21686,
        "contract": "src/Rewards/PlatformRewards/BankNodeLendingRewards.sol:BankNodeLendingRewards",
        "label": "defaultRewardsDuration",
        "offset": 0,
        "slot": "262",
        "type": "t_uint256"
      }
    ],
    "types": {
      "t_address": {
        "encoding": "inplace",
        "label": "address",
        "numberOfBytes": "20"
      },
      "t_array(t_uint256)49_storage": {
        "base": "t_uint256",
        "encoding": "inplace",
        "label": "uint256[49]",
        "numberOfBytes": "1568"
      },
      "t_array(t_uint256)50_storage": {
        "base": "t_uint256",
        "encoding": "inplace",
        "label": "uint256[50]",
        "numberOfBytes": "1600"
      },
      "t_bool": {
        "encoding": "inplace",
        "label": "bool",
        "numberOfBytes": "1"
      },
      "t_bytes32": {
        "encoding": "inplace",
        "label": "bytes32",
        "numberOfBytes": "32"
      },
      "t_contract(IBankNodeManager)20882": {
        "encoding": "inplace",
        "label": "contract IBankNodeManager",
        "numberOfBytes": "20"
      },
      "t_contract(IERC20)4115": {
        "encoding": "inplace",
        "label": "contract IERC20",
        "numberOfBytes": "20"
      },
      "t_mapping(t_address,t_bool)": {
        "encoding": "mapping",
        "key": "t_address",
        "label": "mapping(address => bool)",
        "numberOfBytes": "32",
        "value": "t_bool"
      },
      "t_mapping(t_bytes32,t_struct(RoleData)253_storage)": {
        "encoding": "mapping",
        "key": "t_bytes32",
        "label": "mapping(bytes32 => struct AccessControlUpgradeable.RoleData)",
        "numberOfBytes": "32",
        "value": "t_struct(RoleData)253_storage"
      },
      "t_mapping(t_uint256,t_uint256)": {
        "encoding": "mapping",
        "key": "t_uint256",
        "label": "mapping(uint256 => uint256)",
        "numberOfBytes": "32",
        "value": "t_uint256"
      },
      "t_mapping(t_uint32,t_uint256)": {
        "encoding": "mapping",
        "key": "t_uint32",
        "label": "mapping(uint32 => uint256)",
        "numberOfBytes": "32",
        "value": "t_uint256"
      },
      "t_struct(RoleData)253_storage": {
        "encoding": "inplace",
        "label": "struct AccessControlUpgradeable.RoleData",
        "members": [
          {
            "astId": 250,
            "contract": "src/Rewards/PlatformRewards/BankNodeLendingRewards.sol:BankNodeLendingRewards",
            "label": "members",
            "offset": 0,
            "slot": "0",
            "type": "t_mapping(t_address,t_bool)"
          },
          {
            "astId": 252,
            "contract": "src/Rewards/PlatformRewards/BankNodeLendingRewards.sol:BankNodeLendingRewards",
            "label": "adminRole",
            "offset": 0,
            "slot": "1",
            "type": "t_bytes32"
          }
        ],
        "numberOfBytes": "64"
      },
      "t_uint256": {
        "encoding": "inplace",
        "label": "uint256",
        "numberOfBytes": "32"
      },
      "t_uint32": {
        "encoding": "inplace",
        "label": "uint32",
        "numberOfBytes": "4"
      }
    }
  }
}